{
	"contracts/Auction.sol": {
		"Auction": {
			"abi": [
				{
					"inputs": [],
					"stateMutability": "nonpayable",
					"type": "constructor"
				},
				{
					"inputs": [],
					"name": "auctionEnds",
					"outputs": [],
					"stateMutability": "nonpayable",
					"type": "function"
				},
				{
					"inputs": [],
					"name": "auctionState",
					"outputs": [
						{
							"internalType": "enum Auction.state",
							"name": "",
							"type": "uint8"
						}
					],
					"stateMutability": "view",
					"type": "function"
				},
				{
					"inputs": [
						{
							"internalType": "address",
							"name": "",
							"type": "address"
						}
					],
					"name": "bids",
					"outputs": [
						{
							"internalType": "uint256",
							"name": "",
							"type": "uint256"
						}
					],
					"stateMutability": "view",
					"type": "function"
				},
				{
					"inputs": [],
					"name": "cancelAuc",
					"outputs": [],
					"stateMutability": "nonpayable",
					"type": "function"
				},
				{
					"inputs": [],
					"name": "end_time",
					"outputs": [
						{
							"internalType": "uint256",
							"name": "",
							"type": "uint256"
						}
					],
					"stateMutability": "view",
					"type": "function"
				},
				{
					"inputs": [],
					"name": "highestBid",
					"outputs": [
						{
							"internalType": "uint256",
							"name": "",
							"type": "uint256"
						}
					],
					"stateMutability": "view",
					"type": "function"
				},
				{
					"inputs": [],
					"name": "highestBidder",
					"outputs": [
						{
							"internalType": "address payable",
							"name": "",
							"type": "address"
						}
					],
					"stateMutability": "view",
					"type": "function"
				},
				{
					"inputs": [],
					"name": "highestBindingBid",
					"outputs": [
						{
							"internalType": "uint256",
							"name": "",
							"type": "uint256"
						}
					],
					"stateMutability": "view",
					"type": "function"
				},
				{
					"inputs": [],
					"name": "inc",
					"outputs": [
						{
							"internalType": "uint256",
							"name": "",
							"type": "uint256"
						}
					],
					"stateMutability": "view",
					"type": "function"
				},
				{
					"inputs": [],
					"name": "owner",
					"outputs": [
						{
							"internalType": "address payable",
							"name": "",
							"type": "address"
						}
					],
					"stateMutability": "view",
					"type": "function"
				},
				{
					"inputs": [],
					"name": "placeBid",
					"outputs": [],
					"stateMutability": "payable",
					"type": "function"
				},
				{
					"inputs": [],
					"name": "start_time",
					"outputs": [
						{
							"internalType": "uint256",
							"name": "",
							"type": "uint256"
						}
					],
					"stateMutability": "view",
					"type": "function"
				}
			],
			"devdoc": {
				"kind": "dev",
				"methods": {},
				"version": 1
			},
			"evm": {
				"assembly": "    /* \"contracts/Auction.sol\":35:3073  contract Auction{... */\n  mstore(0x40, 0x80)\n    /* \"contracts/Auction.sol\":703:837  constructor(){... */\n  callvalue\n  dup1\n  iszero\n  tag_1\n  jumpi\n  0x00\n  dup1\n  revert\ntag_1:\n  pop\n    /* \"contracts/Auction.sol\":743:753  msg.sender */\n  caller\n    /* \"contracts/Auction.sol\":727:732  owner */\n  0x00\n  dup1\n    /* \"contracts/Auction.sol\":727:754  owner = payable(msg.sender) */\n  0x0100\n  exp\n  dup2\n  sload\n  dup2\n  0xffffffffffffffffffffffffffffffffffffffff\n  mul\n  not\n  and\n  swap1\n  dup4\n  0xffffffffffffffffffffffffffffffffffffffff\n  and\n  mul\n  or\n  swap1\n  sstore\n  pop\n    /* \"contracts/Auction.sol\":780:793  state.Running */\n  0x01\n    /* \"contracts/Auction.sol\":765:777  auctionState */\n  0x03\n  0x00\n    /* \"contracts/Auction.sol\":765:793  auctionState = state.Running */\n  0x0100\n  exp\n  dup2\n  sload\n  dup2\n  0xff\n  mul\n  not\n  and\n  swap1\n  dup4\n  0x03\n  dup2\n  gt\n  iszero\n  tag_4\n  jumpi\n  tag_5\n  tag_6\n  jump\t// in\ntag_5:\ntag_4:\n  mul\n  or\n  swap1\n  sstore\n  pop\n    /* \"contracts/Auction.sol\":817:829  block.number */\n  number\n    /* \"contracts/Auction.sol\":804:814  start_time */\n  0x01\n    /* \"contracts/Auction.sol\":804:829  start_time = block.number */\n  dup2\n  swap1\n  sstore\n  pop\n    /* \"contracts/Auction.sol\":35:3073  contract Auction{... */\n  jump(tag_7)\n    /* \"#utility.yul\":7:187   */\ntag_6:\n    /* \"#utility.yul\":55:132   */\n  0x4e487b7100000000000000000000000000000000000000000000000000000000\n    /* \"#utility.yul\":52:53   */\n  0x00\n    /* \"#utility.yul\":45:133   */\n  mstore\n    /* \"#utility.yul\":152:156   */\n  0x21\n    /* \"#utility.yul\":149:150   */\n  0x04\n    /* \"#utility.yul\":142:157   */\n  mstore\n    /* \"#utility.yul\":176:180   */\n  0x24\n    /* \"#utility.yul\":173:174   */\n  0x00\n    /* \"#utility.yul\":166:181   */\n  revert\n    /* \"contracts/Auction.sol\":35:3073  contract Auction{... */\ntag_7:\n  dataSize(sub_0)\n  dup1\n  dataOffset(sub_0)\n  0x00\n  codecopy\n  0x00\n  return\nstop\n\nsub_0: assembly {\n        /* \"contracts/Auction.sol\":35:3073  contract Auction{... */\n      mstore(0x40, 0x80)\n      jumpi(tag_1, lt(calldatasize, 0x04))\n      shr(0xe0, calldataload(0x00))\n      dup1\n      0x834ee417\n      gt\n      tag_14\n      jumpi\n      dup1\n      0x834ee417\n      eq\n      tag_8\n      jumpi\n      dup1\n      0x8da5cb5b\n      eq\n      tag_9\n      jumpi\n      dup1\n      0x91f90157\n      eq\n      tag_10\n      jumpi\n      dup1\n      0xd57bde79\n      eq\n      tag_11\n      jumpi\n      dup1\n      0xecfc7ecc\n      eq\n      tag_12\n      jumpi\n      dup1\n      0xf5b56c56\n      eq\n      tag_13\n      jumpi\n      jump(tag_1)\n    tag_14:\n      dup1\n      0x16243356\n      eq\n      tag_2\n      jumpi\n      dup1\n      0x2352f320\n      eq\n      tag_3\n      jumpi\n      dup1\n      0x371303c0\n      eq\n      tag_4\n      jumpi\n      dup1\n      0x3b1cc340\n      eq\n      tag_5\n      jumpi\n      dup1\n      0x62ea82db\n      eq\n      tag_6\n      jumpi\n      dup1\n      0x7fb45099\n      eq\n      tag_7\n      jumpi\n    tag_1:\n      0x00\n      dup1\n      revert\n        /* \"contracts/Auction.sol\":233:253  uint public end_time */\n    tag_2:\n      callvalue\n      dup1\n      iszero\n      tag_15\n      jumpi\n      0x00\n      dup1\n      revert\n    tag_15:\n      pop\n      tag_16\n      tag_17\n      jump\t// in\n    tag_16:\n      mload(0x40)\n      tag_18\n      swap2\n      swap1\n      tag_19\n      jump\t// in\n    tag_18:\n      mload(0x40)\n      dup1\n      swap2\n      sub\n      swap1\n      return\n        /* \"contracts/Auction.sol\":1188:1267  function cancelAuc() public Owner{... */\n    tag_3:\n      callvalue\n      dup1\n      iszero\n      tag_20\n      jumpi\n      0x00\n      dup1\n      revert\n    tag_20:\n      pop\n      tag_21\n      tag_22\n      jump\t// in\n    tag_21:\n      stop\n        /* \"contracts/Auction.sol\":489:504  uint public inc */\n    tag_4:\n      callvalue\n      dup1\n      iszero\n      tag_23\n      jumpi\n      0x00\n      dup1\n      revert\n    tag_23:\n      pop\n      tag_24\n      tag_25\n      jump\t// in\n    tag_24:\n      mload(0x40)\n      tag_26\n      swap2\n      swap1\n      tag_19\n      jump\t// in\n    tag_26:\n      mload(0x40)\n      dup1\n      swap2\n      sub\n      swap1\n      return\n        /* \"contracts/Auction.sol\":2118:3068  function auctionEnds() public{... */\n    tag_5:\n      callvalue\n      dup1\n      iszero\n      tag_27\n      jumpi\n      0x00\n      dup1\n      revert\n    tag_27:\n      pop\n      tag_28\n      tag_29\n      jump\t// in\n    tag_28:\n      stop\n        /* \"contracts/Auction.sol\":658:694  mapping(address => uint) public bids */\n    tag_6:\n      callvalue\n      dup1\n      iszero\n      tag_30\n      jumpi\n      0x00\n      dup1\n      revert\n    tag_30:\n      pop\n      tag_31\n      0x04\n      dup1\n      calldatasize\n      sub\n      dup2\n      add\n      swap1\n      tag_32\n      swap2\n      swap1\n      tag_33\n      jump\t// in\n    tag_32:\n      tag_34\n      jump\t// in\n    tag_31:\n      mload(0x40)\n      tag_35\n      swap2\n      swap1\n      tag_19\n      jump\t// in\n    tag_35:\n      mload(0x40)\n      dup1\n      swap2\n      sub\n      swap1\n      return\n        /* \"contracts/Auction.sol\":308:333  state public auctionState */\n    tag_7:\n      callvalue\n      dup1\n      iszero\n      tag_36\n      jumpi\n      0x00\n      dup1\n      revert\n    tag_36:\n      pop\n      tag_37\n      tag_38\n      jump\t// in\n    tag_37:\n      mload(0x40)\n      tag_39\n      swap2\n      swap1\n      tag_40\n      jump\t// in\n    tag_39:\n      mload(0x40)\n      dup1\n      swap2\n      sub\n      swap1\n      return\n        /* \"contracts/Auction.sol\":170:192  uint public start_time */\n    tag_8:\n      callvalue\n      dup1\n      iszero\n      tag_41\n      jumpi\n      0x00\n      dup1\n      revert\n    tag_41:\n      pop\n      tag_42\n      tag_43\n      jump\t// in\n    tag_42:\n      mload(0x40)\n      tag_44\n      swap2\n      swap1\n      tag_19\n      jump\t// in\n    tag_44:\n      mload(0x40)\n      dup1\n      swap2\n      sub\n      swap1\n      return\n        /* \"contracts/Auction.sol\":99:127  address payable public owner */\n    tag_9:\n      callvalue\n      dup1\n      iszero\n      tag_45\n      jumpi\n      0x00\n      dup1\n      revert\n    tag_45:\n      pop\n      tag_46\n      tag_47\n      jump\t// in\n    tag_46:\n      mload(0x40)\n      tag_48\n      swap2\n      swap1\n      tag_49\n      jump\t// in\n    tag_48:\n      mload(0x40)\n      dup1\n      swap2\n      sub\n      swap1\n      return\n        /* \"contracts/Auction.sol\":551:587  address payable public highestBidder */\n    tag_10:\n      callvalue\n      dup1\n      iszero\n      tag_50\n      jumpi\n      0x00\n      dup1\n      revert\n    tag_50:\n      pop\n      tag_51\n      tag_52\n      jump\t// in\n    tag_51:\n      mload(0x40)\n      tag_53\n      swap2\n      swap1\n      tag_49\n      jump\t// in\n    tag_53:\n      mload(0x40)\n      dup1\n      swap2\n      sub\n      swap1\n      return\n        /* \"contracts/Auction.sol\":346:368  uint public highestBid */\n    tag_11:\n      callvalue\n      dup1\n      iszero\n      tag_54\n      jumpi\n      0x00\n      dup1\n      revert\n    tag_54:\n      pop\n      tag_55\n      tag_56\n      jump\t// in\n    tag_55:\n      mload(0x40)\n      tag_57\n      swap2\n      swap1\n      tag_19\n      jump\t// in\n    tag_57:\n      mload(0x40)\n      dup1\n      swap2\n      sub\n      swap1\n      return\n        /* \"contracts/Auction.sol\":1449:2110  function placeBid() payable public notOwner started{... */\n    tag_12:\n      tag_58\n      tag_59\n      jump\t// in\n    tag_58:\n      stop\n        /* \"contracts/Auction.sol\":425:454  uint public highestBindingBid */\n    tag_13:\n      callvalue\n      dup1\n      iszero\n      tag_60\n      jumpi\n      0x00\n      dup1\n      revert\n    tag_60:\n      pop\n      tag_61\n      tag_62\n      jump\t// in\n    tag_61:\n      mload(0x40)\n      tag_63\n      swap2\n      swap1\n      tag_19\n      jump\t// in\n    tag_63:\n      mload(0x40)\n      dup1\n      swap2\n      sub\n      swap1\n      return\n        /* \"contracts/Auction.sol\":233:253  uint public end_time */\n    tag_17:\n      sload(0x02)\n      dup2\n      jump\t// out\n        /* \"contracts/Auction.sol\":1188:1267  function cancelAuc() public Owner{... */\n    tag_22:\n        /* \"contracts/Auction.sol\":980:985  owner */\n      0x00\n      dup1\n      sload\n      swap1\n      0x0100\n      exp\n      swap1\n      div\n      0xffffffffffffffffffffffffffffffffffffffff\n      and\n        /* \"contracts/Auction.sol\":966:985  msg.sender == owner */\n      0xffffffffffffffffffffffffffffffffffffffff\n      and\n        /* \"contracts/Auction.sol\":966:976  msg.sender */\n      caller\n        /* \"contracts/Auction.sol\":966:985  msg.sender == owner */\n      0xffffffffffffffffffffffffffffffffffffffff\n      and\n      eq\n        /* \"contracts/Auction.sol\":958:986  require(msg.sender == owner) */\n      tag_65\n      jumpi\n      0x00\n      dup1\n      revert\n    tag_65:\n        /* \"contracts/Auction.sol\":1247:1259  state.Cancel */\n      0x03\n        /* \"contracts/Auction.sol\":1232:1244  auctionState */\n      dup1\n      0x00\n        /* \"contracts/Auction.sol\":1232:1259  auctionState = state.Cancel */\n      0x0100\n      exp\n      dup2\n      sload\n      dup2\n      0xff\n      mul\n      not\n      and\n      swap1\n      dup4\n      0x03\n      dup2\n      gt\n      iszero\n      tag_67\n      jumpi\n      tag_68\n      tag_69\n      jump\t// in\n    tag_68:\n    tag_67:\n      mul\n      or\n      swap1\n      sstore\n      pop\n        /* \"contracts/Auction.sol\":1188:1267  function cancelAuc() public Owner{... */\n      jump\t// out\n        /* \"contracts/Auction.sol\":489:504  uint public inc */\n    tag_25:\n      sload(0x06)\n      dup2\n      jump\t// out\n        /* \"contracts/Auction.sol\":2118:3068  function auctionEnds() public{... */\n    tag_29:\n        /* \"contracts/Auction.sol\":2185:2197  state.Cancel */\n      0x03\n        /* \"contracts/Auction.sol\":2169:2197  auctionState == state.Cancel */\n      dup1\n      dup2\n      gt\n      iszero\n      tag_71\n      jumpi\n      tag_72\n      tag_69\n      jump\t// in\n    tag_72:\n    tag_71:\n        /* \"contracts/Auction.sol\":2169:2181  auctionState */\n      0x03\n      0x00\n      swap1\n      sload\n      swap1\n      0x0100\n      exp\n      swap1\n      div\n      0xff\n      and\n        /* \"contracts/Auction.sol\":2169:2197  auctionState == state.Cancel */\n      0x03\n      dup2\n      gt\n      iszero\n      tag_73\n      jumpi\n      tag_74\n      tag_69\n      jump\t// in\n    tag_74:\n    tag_73:\n      eq\n        /* \"contracts/Auction.sol\":2168:2227  (auctionState == state.Cancel) || (block.number > end_time) */\n      dup1\n      tag_75\n      jumpi\n      pop\n        /* \"contracts/Auction.sol\":2218:2226  end_time */\n      sload(0x02)\n        /* \"contracts/Auction.sol\":2203:2215  block.number */\n      number\n        /* \"contracts/Auction.sol\":2203:2226  block.number > end_time */\n      gt\n        /* \"contracts/Auction.sol\":2168:2227  (auctionState == state.Cancel) || (block.number > end_time) */\n    tag_75:\n        /* \"contracts/Auction.sol\":2160:2228  require((auctionState == state.Cancel) || (block.number > end_time)) */\n      tag_76\n      jumpi\n      0x00\n      dup1\n      revert\n    tag_76:\n        /* \"contracts/Auction.sol\":2262:2267  owner */\n      0x00\n      dup1\n      sload\n      swap1\n      0x0100\n      exp\n      swap1\n      div\n      0xffffffffffffffffffffffffffffffffffffffff\n      and\n        /* \"contracts/Auction.sol\":2248:2267  msg.sender == owner */\n      0xffffffffffffffffffffffffffffffffffffffff\n      and\n        /* \"contracts/Auction.sol\":2248:2258  msg.sender */\n      caller\n        /* \"contracts/Auction.sol\":2248:2267  msg.sender == owner */\n      0xffffffffffffffffffffffffffffffffffffffff\n      and\n      eq\n        /* \"contracts/Auction.sol\":2247:2294  (msg.sender == owner) || (bids[msg.sender] > 0) */\n      dup1\n      tag_77\n      jumpi\n      pop\n        /* \"contracts/Auction.sol\":2292:2293  0 */\n      0x00\n        /* \"contracts/Auction.sol\":2273:2277  bids */\n      0x08\n        /* \"contracts/Auction.sol\":2273:2289  bids[msg.sender] */\n      0x00\n        /* \"contracts/Auction.sol\":2278:2288  msg.sender */\n      caller\n        /* \"contracts/Auction.sol\":2273:2289  bids[msg.sender] */\n      0xffffffffffffffffffffffffffffffffffffffff\n      and\n      0xffffffffffffffffffffffffffffffffffffffff\n      and\n      dup2\n      mstore\n      0x20\n      add\n      swap1\n      dup2\n      mstore\n      0x20\n      add\n      0x00\n      keccak256\n      sload\n        /* \"contracts/Auction.sol\":2273:2293  bids[msg.sender] > 0 */\n      gt\n        /* \"contracts/Auction.sol\":2247:2294  (msg.sender == owner) || (bids[msg.sender] > 0) */\n    tag_77:\n        /* \"contracts/Auction.sol\":2239:2295  require((msg.sender == owner) || (bids[msg.sender] > 0)) */\n      tag_78\n      jumpi\n      0x00\n      dup1\n      revert\n    tag_78:\n        /* \"contracts/Auction.sol\":2308:2330  address payable person */\n      0x00\n        /* \"contracts/Auction.sol\":2341:2352  uint amount */\n      dup1\n        /* \"contracts/Auction.sol\":2384:2396  state.Cancel */\n      0x03\n        /* \"contracts/Auction.sol\":2368:2396  auctionState == state.Cancel */\n      dup1\n      dup2\n      gt\n      iszero\n      tag_79\n      jumpi\n      tag_80\n      tag_69\n      jump\t// in\n    tag_80:\n    tag_79:\n        /* \"contracts/Auction.sol\":2368:2380  auctionState */\n      0x03\n      0x00\n      swap1\n      sload\n      swap1\n      0x0100\n      exp\n      swap1\n      div\n      0xff\n      and\n        /* \"contracts/Auction.sol\":2368:2396  auctionState == state.Cancel */\n      0x03\n      dup2\n      gt\n      iszero\n      tag_81\n      jumpi\n      tag_82\n      tag_69\n      jump\t// in\n    tag_82:\n    tag_81:\n      sub\n        /* \"contracts/Auction.sol\":2365:3023  if(auctionState == state.Cancel){... */\n      tag_83\n      jumpi\n        /* \"contracts/Auction.sol\":2429:2439  msg.sender */\n      caller\n        /* \"contracts/Auction.sol\":2412:2440  person = payable(msg.sender) */\n      swap2\n      pop\n        /* \"contracts/Auction.sol\":2464:2468  bids */\n      0x08\n        /* \"contracts/Auction.sol\":2464:2480  bids[msg.sender] */\n      0x00\n        /* \"contracts/Auction.sol\":2469:2479  msg.sender */\n      caller\n        /* \"contracts/Auction.sol\":2464:2480  bids[msg.sender] */\n      0xffffffffffffffffffffffffffffffffffffffff\n      and\n      0xffffffffffffffffffffffffffffffffffffffff\n      and\n      dup2\n      mstore\n      0x20\n      add\n      swap1\n      dup2\n      mstore\n      0x20\n      add\n      0x00\n      keccak256\n      sload\n        /* \"contracts/Auction.sol\":2455:2480  amount = bids[msg.sender] */\n      swap1\n      pop\n        /* \"contracts/Auction.sol\":2365:3023  if(auctionState == state.Cancel){... */\n      jump(tag_84)\n    tag_83:\n        /* \"contracts/Auction.sol\":2538:2543  owner */\n      0x00\n      dup1\n      sload\n      swap1\n      0x0100\n      exp\n      swap1\n      div\n      0xffffffffffffffffffffffffffffffffffffffff\n      and\n        /* \"contracts/Auction.sol\":2524:2543  msg.sender == owner */\n      0xffffffffffffffffffffffffffffffffffffffff\n      and\n        /* \"contracts/Auction.sol\":2524:2534  msg.sender */\n      caller\n        /* \"contracts/Auction.sol\":2524:2543  msg.sender == owner */\n      0xffffffffffffffffffffffffffffffffffffffff\n      and\n      sub\n        /* \"contracts/Auction.sol\":2521:3012  if(msg.sender == owner){... */\n      tag_85\n      jumpi\n        /* \"contracts/Auction.sol\":2572:2577  owner */\n      0x00\n      dup1\n      sload\n      swap1\n      0x0100\n      exp\n      swap1\n      div\n      0xffffffffffffffffffffffffffffffffffffffff\n      and\n        /* \"contracts/Auction.sol\":2563:2577  person = owner */\n      swap2\n      pop\n        /* \"contracts/Auction.sol\":2605:2622  highestBindingBid */\n      sload(0x05)\n        /* \"contracts/Auction.sol\":2596:2622  amount = highestBindingBid */\n      swap1\n      pop\n        /* \"contracts/Auction.sol\":2521:3012  if(msg.sender == owner){... */\n      jump(tag_86)\n    tag_85:\n        /* \"contracts/Auction.sol\":2692:2705  highestBidder */\n      0x07\n      0x00\n      swap1\n      sload\n      swap1\n      0x0100\n      exp\n      swap1\n      div\n      0xffffffffffffffffffffffffffffffffffffffff\n      and\n        /* \"contracts/Auction.sol\":2678:2705  msg.sender == highestBidder */\n      0xffffffffffffffffffffffffffffffffffffffff\n      and\n        /* \"contracts/Auction.sol\":2678:2688  msg.sender */\n      caller\n        /* \"contracts/Auction.sol\":2678:2705  msg.sender == highestBidder */\n      0xffffffffffffffffffffffffffffffffffffffff\n      and\n      sub\n        /* \"contracts/Auction.sol\":2675:2997  if(msg.sender == highestBidder){... */\n      tag_87\n      jumpi\n        /* \"contracts/Auction.sol\":2738:2751  highestBidder */\n      0x07\n      0x00\n      swap1\n      sload\n      swap1\n      0x0100\n      exp\n      swap1\n      div\n      0xffffffffffffffffffffffffffffffffffffffff\n      and\n        /* \"contracts/Auction.sol\":2729:2751  person = highestBidder */\n      swap2\n      pop\n        /* \"contracts/Auction.sol\":2805:2822  highestBindingBid */\n      sload(0x05)\n        /* \"contracts/Auction.sol\":2783:2787  bids */\n      0x08\n        /* \"contracts/Auction.sol\":2783:2802  bids[highestBidder] */\n      0x00\n        /* \"contracts/Auction.sol\":2788:2801  highestBidder */\n      0x07\n      0x00\n      swap1\n      sload\n      swap1\n      0x0100\n      exp\n      swap1\n      div\n      0xffffffffffffffffffffffffffffffffffffffff\n      and\n        /* \"contracts/Auction.sol\":2783:2802  bids[highestBidder] */\n      0xffffffffffffffffffffffffffffffffffffffff\n      and\n      0xffffffffffffffffffffffffffffffffffffffff\n      and\n      dup2\n      mstore\n      0x20\n      add\n      swap1\n      dup2\n      mstore\n      0x20\n      add\n      0x00\n      keccak256\n      sload\n        /* \"contracts/Auction.sol\":2783:2822  bids[highestBidder] - highestBindingBid */\n      tag_88\n      swap2\n      swap1\n      tag_89\n      jump\t// in\n    tag_88:\n        /* \"contracts/Auction.sol\":2774:2822  amount = bids[highestBidder] - highestBindingBid */\n      swap1\n      pop\n        /* \"contracts/Auction.sol\":2675:2997  if(msg.sender == highestBidder){... */\n      jump(tag_90)\n    tag_87:\n        /* \"contracts/Auction.sol\":2918:2928  msg.sender */\n      caller\n        /* \"contracts/Auction.sol\":2901:2929  person = payable(msg.sender) */\n      swap2\n      pop\n        /* \"contracts/Auction.sol\":2961:2965  bids */\n      0x08\n        /* \"contracts/Auction.sol\":2961:2977  bids[msg.sender] */\n      0x00\n        /* \"contracts/Auction.sol\":2966:2976  msg.sender */\n      caller\n        /* \"contracts/Auction.sol\":2961:2977  bids[msg.sender] */\n      0xffffffffffffffffffffffffffffffffffffffff\n      and\n      0xffffffffffffffffffffffffffffffffffffffff\n      and\n      dup2\n      mstore\n      0x20\n      add\n      swap1\n      dup2\n      mstore\n      0x20\n      add\n      0x00\n      keccak256\n      sload\n        /* \"contracts/Auction.sol\":2952:2977  amount = bids[msg.sender] */\n      swap1\n      pop\n        /* \"contracts/Auction.sol\":2675:2997  if(msg.sender == highestBidder){... */\n    tag_90:\n        /* \"contracts/Auction.sol\":2521:3012  if(msg.sender == owner){... */\n    tag_86:\n        /* \"contracts/Auction.sol\":2365:3023  if(auctionState == state.Cancel){... */\n    tag_84:\n        /* \"contracts/Auction.sol\":3035:3041  person */\n      dup2\n        /* \"contracts/Auction.sol\":3035:3050  person.transfer */\n      0xffffffffffffffffffffffffffffffffffffffff\n      and\n        /* \"contracts/Auction.sol\":3035:3058  person.transfer(amount) */\n      0x08fc\n        /* \"contracts/Auction.sol\":3051:3057  amount */\n      dup3\n        /* \"contracts/Auction.sol\":3035:3058  person.transfer(amount) */\n      swap1\n      dup2\n      iszero\n      mul\n      swap1\n      mload(0x40)\n      0x00\n      mload(0x40)\n      dup1\n      dup4\n      sub\n      dup2\n      dup6\n      dup9\n      dup9\n      call\n      swap4\n      pop\n      pop\n      pop\n      pop\n      iszero\n      dup1\n      iszero\n      tag_92\n      jumpi\n      returndatasize\n      0x00\n      dup1\n      returndatacopy\n      revert(0x00, returndatasize)\n    tag_92:\n      pop\n        /* \"contracts/Auction.sol\":2147:3068  {... */\n      pop\n      pop\n        /* \"contracts/Auction.sol\":2118:3068  function auctionEnds() public{... */\n      jump\t// out\n        /* \"contracts/Auction.sol\":658:694  mapping(address => uint) public bids */\n    tag_34:\n      mstore(0x20, 0x08)\n      dup1\n      0x00\n      mstore\n      keccak256(0x00, 0x40)\n      0x00\n      swap2\n      pop\n      swap1\n      pop\n      sload\n      dup2\n      jump\t// out\n        /* \"contracts/Auction.sol\":308:333  state public auctionState */\n    tag_38:\n      0x03\n      0x00\n      swap1\n      sload\n      swap1\n      0x0100\n      exp\n      swap1\n      div\n      0xff\n      and\n      dup2\n      jump\t// out\n        /* \"contracts/Auction.sol\":170:192  uint public start_time */\n    tag_43:\n      sload(0x01)\n      dup2\n      jump\t// out\n        /* \"contracts/Auction.sol\":99:127  address payable public owner */\n    tag_47:\n      0x00\n      dup1\n      sload\n      swap1\n      0x0100\n      exp\n      swap1\n      div\n      0xffffffffffffffffffffffffffffffffffffffff\n      and\n      dup2\n      jump\t// out\n        /* \"contracts/Auction.sol\":551:587  address payable public highestBidder */\n    tag_52:\n      0x07\n      0x00\n      swap1\n      sload\n      swap1\n      0x0100\n      exp\n      swap1\n      div\n      0xffffffffffffffffffffffffffffffffffffffff\n      and\n      dup2\n      jump\t// out\n        /* \"contracts/Auction.sol\":346:368  uint public highestBid */\n    tag_56:\n      sload(0x04)\n      dup2\n      jump\t// out\n        /* \"contracts/Auction.sol\":1449:2110  function placeBid() payable public notOwner started{... */\n    tag_59:\n        /* \"contracts/Auction.sol\":897:902  owner */\n      0x00\n      dup1\n      sload\n      swap1\n      0x0100\n      exp\n      swap1\n      div\n      0xffffffffffffffffffffffffffffffffffffffff\n      and\n        /* \"contracts/Auction.sol\":883:902  msg.sender != owner */\n      0xffffffffffffffffffffffffffffffffffffffff\n      and\n        /* \"contracts/Auction.sol\":883:893  msg.sender */\n      caller\n        /* \"contracts/Auction.sol\":883:902  msg.sender != owner */\n      0xffffffffffffffffffffffffffffffffffffffff\n      and\n      sub\n        /* \"contracts/Auction.sol\":875:903  require(msg.sender != owner) */\n      tag_94\n      jumpi\n      0x00\n      dup1\n      revert\n    tag_94:\n        /* \"contracts/Auction.sol\":1064:1074  start_time */\n      sload(0x01)\n        /* \"contracts/Auction.sol\":1051:1063  block.number */\n      number\n        /* \"contracts/Auction.sol\":1051:1074  block.number>start_time */\n      gt\n        /* \"contracts/Auction.sol\":1043:1075  require(block.number>start_time) */\n      tag_96\n      jumpi\n      0x00\n      dup1\n      revert\n    tag_96:\n        /* \"contracts/Auction.sol\":1599:1612  state.Running */\n      0x01\n        /* \"contracts/Auction.sol\":1583:1612  auctionState == state.Running */\n      0x03\n      dup2\n      gt\n      iszero\n      tag_98\n      jumpi\n      tag_99\n      tag_69\n      jump\t// in\n    tag_99:\n    tag_98:\n        /* \"contracts/Auction.sol\":1583:1595  auctionState */\n      0x03\n      0x00\n      swap1\n      sload\n      swap1\n      0x0100\n      exp\n      swap1\n      div\n      0xff\n      and\n        /* \"contracts/Auction.sol\":1583:1612  auctionState == state.Running */\n      0x03\n      dup2\n      gt\n      iszero\n      tag_100\n      jumpi\n      tag_101\n      tag_69\n      jump\t// in\n    tag_101:\n    tag_100:\n      eq\n        /* \"contracts/Auction.sol\":1575:1613  require(auctionState == state.Running) */\n      tag_102\n      jumpi\n      0x00\n      dup1\n      revert\n    tag_102:\n        /* \"contracts/Auction.sol\":1657:1664  1 ether */\n      0x0de0b6b3a7640000\n        /* \"contracts/Auction.sol\":1647:1656  msg.value */\n      callvalue\n        /* \"contracts/Auction.sol\":1647:1664  msg.value>1 ether */\n      gt\n        /* \"contracts/Auction.sol\":1639:1665  require(msg.value>1 ether) */\n      tag_103\n      jumpi\n      0x00\n      dup1\n      revert\n    tag_103:\n        /* \"contracts/Auction.sol\":1678:1693  uint currentbid */\n      0x00\n        /* \"contracts/Auction.sol\":1715:1718  inc */\n      sload(0x06)\n        /* \"contracts/Auction.sol\":1696:1700  bids */\n      0x08\n        /* \"contracts/Auction.sol\":1696:1712  bids[msg.sender] */\n      0x00\n        /* \"contracts/Auction.sol\":1701:1711  msg.sender */\n      caller\n        /* \"contracts/Auction.sol\":1696:1712  bids[msg.sender] */\n      0xffffffffffffffffffffffffffffffffffffffff\n      and\n      0xffffffffffffffffffffffffffffffffffffffff\n      and\n      dup2\n      mstore\n      0x20\n      add\n      swap1\n      dup2\n      mstore\n      0x20\n      add\n      0x00\n      keccak256\n      sload\n        /* \"contracts/Auction.sol\":1696:1718  bids[msg.sender] + inc */\n      tag_104\n      swap2\n      swap1\n      tag_105\n      jump\t// in\n    tag_104:\n        /* \"contracts/Auction.sol\":1678:1718  uint currentbid = bids[msg.sender] + inc */\n      swap1\n      pop\n        /* \"contracts/Auction.sol\":1752:1769  highestBindingBid */\n      sload(0x05)\n        /* \"contracts/Auction.sol\":1739:1749  currentbid */\n      dup2\n        /* \"contracts/Auction.sol\":1739:1769  currentbid > highestBindingBid */\n      gt\n        /* \"contracts/Auction.sol\":1731:1770  require(currentbid > highestBindingBid) */\n      tag_106\n      jumpi\n      0x00\n      dup1\n      revert\n    tag_106:\n        /* \"contracts/Auction.sol\":1800:1810  currentbid */\n      dup1\n        /* \"contracts/Auction.sol\":1781:1785  bids */\n      0x08\n        /* \"contracts/Auction.sol\":1781:1797  bids[msg.sender] */\n      0x00\n        /* \"contracts/Auction.sol\":1786:1796  msg.sender */\n      caller\n        /* \"contracts/Auction.sol\":1781:1797  bids[msg.sender] */\n      0xffffffffffffffffffffffffffffffffffffffff\n      and\n      0xffffffffffffffffffffffffffffffffffffffff\n      and\n      dup2\n      mstore\n      0x20\n      add\n      swap1\n      dup2\n      mstore\n      0x20\n      add\n      0x00\n      keccak256\n        /* \"contracts/Auction.sol\":1781:1810  bids[msg.sender] = currentbid */\n      dup2\n      swap1\n      sstore\n      pop\n        /* \"contracts/Auction.sol\":1837:1841  bids */\n      0x08\n        /* \"contracts/Auction.sol\":1837:1856  bids[highestBidder] */\n      0x00\n        /* \"contracts/Auction.sol\":1842:1855  highestBidder */\n      0x07\n      0x00\n      swap1\n      sload\n      swap1\n      0x0100\n      exp\n      swap1\n      div\n      0xffffffffffffffffffffffffffffffffffffffff\n      and\n        /* \"contracts/Auction.sol\":1837:1856  bids[highestBidder] */\n      0xffffffffffffffffffffffffffffffffffffffff\n      and\n      0xffffffffffffffffffffffffffffffffffffffff\n      and\n      dup2\n      mstore\n      0x20\n      add\n      swap1\n      dup2\n      mstore\n      0x20\n      add\n      0x00\n      keccak256\n      sload\n        /* \"contracts/Auction.sol\":1826:1836  currentbid */\n      dup2\n        /* \"contracts/Auction.sol\":1826:1856  currentbid<bids[highestBidder] */\n      lt\n        /* \"contracts/Auction.sol\":1823:2099  if(currentbid<bids[highestBidder]){... */\n      iszero\n      tag_107\n      jumpi\n        /* \"contracts/Auction.sol\":1892:1934  min(currentbid + inc, bids[highestBidder]) */\n      tag_108\n        /* \"contracts/Auction.sol\":1909:1912  inc */\n      sload(0x06)\n        /* \"contracts/Auction.sol\":1896:1906  currentbid */\n      dup3\n        /* \"contracts/Auction.sol\":1896:1912  currentbid + inc */\n      tag_109\n      swap2\n      swap1\n      tag_105\n      jump\t// in\n    tag_109:\n        /* \"contracts/Auction.sol\":1914:1918  bids */\n      0x08\n        /* \"contracts/Auction.sol\":1914:1933  bids[highestBidder] */\n      0x00\n        /* \"contracts/Auction.sol\":1919:1932  highestBidder */\n      0x07\n      0x00\n      swap1\n      sload\n      swap1\n      0x0100\n      exp\n      swap1\n      div\n      0xffffffffffffffffffffffffffffffffffffffff\n      and\n        /* \"contracts/Auction.sol\":1914:1933  bids[highestBidder] */\n      0xffffffffffffffffffffffffffffffffffffffff\n      and\n      0xffffffffffffffffffffffffffffffffffffffff\n      and\n      dup2\n      mstore\n      0x20\n      add\n      swap1\n      dup2\n      mstore\n      0x20\n      add\n      0x00\n      keccak256\n      sload\n        /* \"contracts/Auction.sol\":1892:1895  min */\n      tag_110\n        /* \"contracts/Auction.sol\":1892:1934  min(currentbid + inc, bids[highestBidder]) */\n      jump\t// in\n    tag_108:\n        /* \"contracts/Auction.sol\":1872:1889  highestBindingBid */\n      0x05\n        /* \"contracts/Auction.sol\":1872:1934  highestBindingBid = min(currentbid + inc, bids[highestBidder]) */\n      dup2\n      swap1\n      sstore\n      pop\n        /* \"contracts/Auction.sol\":1823:2099  if(currentbid<bids[highestBidder]){... */\n      jump(tag_111)\n    tag_107:\n        /* \"contracts/Auction.sol\":1995:2037  min(currentbid, bids[highestBidder] + inc) */\n      tag_112\n        /* \"contracts/Auction.sol\":1999:2009  currentbid */\n      dup2\n        /* \"contracts/Auction.sol\":2033:2036  inc */\n      sload(0x06)\n        /* \"contracts/Auction.sol\":2011:2015  bids */\n      0x08\n        /* \"contracts/Auction.sol\":2011:2030  bids[highestBidder] */\n      0x00\n        /* \"contracts/Auction.sol\":2016:2029  highestBidder */\n      0x07\n      0x00\n      swap1\n      sload\n      swap1\n      0x0100\n      exp\n      swap1\n      div\n      0xffffffffffffffffffffffffffffffffffffffff\n      and\n        /* \"contracts/Auction.sol\":2011:2030  bids[highestBidder] */\n      0xffffffffffffffffffffffffffffffffffffffff\n      and\n      0xffffffffffffffffffffffffffffffffffffffff\n      and\n      dup2\n      mstore\n      0x20\n      add\n      swap1\n      dup2\n      mstore\n      0x20\n      add\n      0x00\n      keccak256\n      sload\n        /* \"contracts/Auction.sol\":2011:2036  bids[highestBidder] + inc */\n      tag_113\n      swap2\n      swap1\n      tag_105\n      jump\t// in\n    tag_113:\n        /* \"contracts/Auction.sol\":1995:1998  min */\n      tag_110\n        /* \"contracts/Auction.sol\":1995:2037  min(currentbid, bids[highestBidder] + inc) */\n      jump\t// in\n    tag_112:\n        /* \"contracts/Auction.sol\":1975:1992  highestBindingBid */\n      0x05\n        /* \"contracts/Auction.sol\":1975:2037  highestBindingBid = min(currentbid, bids[highestBidder] + inc) */\n      dup2\n      swap1\n      sstore\n      pop\n        /* \"contracts/Auction.sol\":2076:2086  msg.sender */\n      caller\n        /* \"contracts/Auction.sol\":2052:2065  highestBidder */\n      0x07\n      0x00\n        /* \"contracts/Auction.sol\":2052:2087  highestBidder = payable(msg.sender) */\n      0x0100\n      exp\n      dup2\n      sload\n      dup2\n      0xffffffffffffffffffffffffffffffffffffffff\n      mul\n      not\n      and\n      swap1\n      dup4\n      0xffffffffffffffffffffffffffffffffffffffff\n      and\n      mul\n      or\n      swap1\n      sstore\n      pop\n        /* \"contracts/Auction.sol\":1823:2099  if(currentbid<bids[highestBidder]){... */\n    tag_111:\n        /* \"contracts/Auction.sol\":1500:2110  {... */\n      pop\n        /* \"contracts/Auction.sol\":1449:2110  function placeBid() payable public notOwner started{... */\n      jump\t// out\n        /* \"contracts/Auction.sol\":425:454  uint public highestBindingBid */\n    tag_62:\n      sload(0x05)\n      dup2\n      jump\t// out\n        /* \"contracts/Auction.sol\":1275:1441  function min(uint a, uint b) pure private returns(uint){... */\n    tag_110:\n        /* \"contracts/Auction.sol\":1325:1329  uint */\n      0x00\n        /* \"contracts/Auction.sol\":1348:1349  b */\n      dup2\n        /* \"contracts/Auction.sol\":1345:1346  a */\n      dup4\n        /* \"contracts/Auction.sol\":1345:1349  a<=b */\n      gt\n        /* \"contracts/Auction.sol\":1341:1434  if (a<=b){... */\n      tag_115\n      jumpi\n        /* \"contracts/Auction.sol\":1372:1373  a */\n      dup3\n        /* \"contracts/Auction.sol\":1365:1373  return a */\n      swap1\n      pop\n      jump(tag_114)\n        /* \"contracts/Auction.sol\":1341:1434  if (a<=b){... */\n    tag_115:\n        /* \"contracts/Auction.sol\":1421:1422  b */\n      dup2\n        /* \"contracts/Auction.sol\":1414:1422  return b */\n      swap1\n      pop\n        /* \"contracts/Auction.sol\":1275:1441  function min(uint a, uint b) pure private returns(uint){... */\n    tag_114:\n      swap3\n      swap2\n      pop\n      pop\n      jump\t// out\n        /* \"#utility.yul\":7:84   */\n    tag_117:\n        /* \"#utility.yul\":44:51   */\n      0x00\n        /* \"#utility.yul\":73:78   */\n      dup2\n        /* \"#utility.yul\":62:78   */\n      swap1\n      pop\n        /* \"#utility.yul\":7:84   */\n      swap2\n      swap1\n      pop\n      jump\t// out\n        /* \"#utility.yul\":90:208   */\n    tag_118:\n        /* \"#utility.yul\":177:201   */\n      tag_136\n        /* \"#utility.yul\":195:200   */\n      dup2\n        /* \"#utility.yul\":177:201   */\n      tag_117\n      jump\t// in\n    tag_136:\n        /* \"#utility.yul\":172:175   */\n      dup3\n        /* \"#utility.yul\":165:202   */\n      mstore\n        /* \"#utility.yul\":90:208   */\n      pop\n      pop\n      jump\t// out\n        /* \"#utility.yul\":214:436   */\n    tag_19:\n        /* \"#utility.yul\":307:311   */\n      0x00\n        /* \"#utility.yul\":345:347   */\n      0x20\n        /* \"#utility.yul\":334:343   */\n      dup3\n        /* \"#utility.yul\":330:348   */\n      add\n        /* \"#utility.yul\":322:348   */\n      swap1\n      pop\n        /* \"#utility.yul\":358:429   */\n      tag_138\n        /* \"#utility.yul\":426:427   */\n      0x00\n        /* \"#utility.yul\":415:424   */\n      dup4\n        /* \"#utility.yul\":411:428   */\n      add\n        /* \"#utility.yul\":402:408   */\n      dup5\n        /* \"#utility.yul\":358:429   */\n      tag_118\n      jump\t// in\n    tag_138:\n        /* \"#utility.yul\":214:436   */\n      swap3\n      swap2\n      pop\n      pop\n      jump\t// out\n        /* \"#utility.yul\":523:640   */\n    tag_120:\n        /* \"#utility.yul\":632:633   */\n      0x00\n        /* \"#utility.yul\":629:630   */\n      dup1\n        /* \"#utility.yul\":622:634   */\n      revert\n        /* \"#utility.yul\":769:895   */\n    tag_122:\n        /* \"#utility.yul\":806:813   */\n      0x00\n        /* \"#utility.yul\":846:888   */\n      0xffffffffffffffffffffffffffffffffffffffff\n        /* \"#utility.yul\":839:844   */\n      dup3\n        /* \"#utility.yul\":835:889   */\n      and\n        /* \"#utility.yul\":824:889   */\n      swap1\n      pop\n        /* \"#utility.yul\":769:895   */\n      swap2\n      swap1\n      pop\n      jump\t// out\n        /* \"#utility.yul\":901:997   */\n    tag_123:\n        /* \"#utility.yul\":938:945   */\n      0x00\n        /* \"#utility.yul\":967:991   */\n      tag_144\n        /* \"#utility.yul\":985:990   */\n      dup3\n        /* \"#utility.yul\":967:991   */\n      tag_122\n      jump\t// in\n    tag_144:\n        /* \"#utility.yul\":956:991   */\n      swap1\n      pop\n        /* \"#utility.yul\":901:997   */\n      swap2\n      swap1\n      pop\n      jump\t// out\n        /* \"#utility.yul\":1003:1125   */\n    tag_124:\n        /* \"#utility.yul\":1076:1100   */\n      tag_146\n        /* \"#utility.yul\":1094:1099   */\n      dup2\n        /* \"#utility.yul\":1076:1100   */\n      tag_123\n      jump\t// in\n    tag_146:\n        /* \"#utility.yul\":1069:1074   */\n      dup2\n        /* \"#utility.yul\":1066:1101   */\n      eq\n        /* \"#utility.yul\":1056:1119   */\n      tag_147\n      jumpi\n        /* \"#utility.yul\":1115:1116   */\n      0x00\n        /* \"#utility.yul\":1112:1113   */\n      dup1\n        /* \"#utility.yul\":1105:1117   */\n      revert\n        /* \"#utility.yul\":1056:1119   */\n    tag_147:\n        /* \"#utility.yul\":1003:1125   */\n      pop\n      jump\t// out\n        /* \"#utility.yul\":1131:1270   */\n    tag_125:\n        /* \"#utility.yul\":1177:1182   */\n      0x00\n        /* \"#utility.yul\":1215:1221   */\n      dup2\n        /* \"#utility.yul\":1202:1222   */\n      calldataload\n        /* \"#utility.yul\":1193:1222   */\n      swap1\n      pop\n        /* \"#utility.yul\":1231:1264   */\n      tag_149\n        /* \"#utility.yul\":1258:1263   */\n      dup2\n        /* \"#utility.yul\":1231:1264   */\n      tag_124\n      jump\t// in\n    tag_149:\n        /* \"#utility.yul\":1131:1270   */\n      swap3\n      swap2\n      pop\n      pop\n      jump\t// out\n        /* \"#utility.yul\":1276:1605   */\n    tag_33:\n        /* \"#utility.yul\":1335:1341   */\n      0x00\n        /* \"#utility.yul\":1384:1386   */\n      0x20\n        /* \"#utility.yul\":1372:1381   */\n      dup3\n        /* \"#utility.yul\":1363:1370   */\n      dup5\n        /* \"#utility.yul\":1359:1382   */\n      sub\n        /* \"#utility.yul\":1355:1387   */\n      slt\n        /* \"#utility.yul\":1352:1471   */\n      iszero\n      tag_151\n      jumpi\n        /* \"#utility.yul\":1390:1469   */\n      tag_152\n      tag_120\n      jump\t// in\n    tag_152:\n        /* \"#utility.yul\":1352:1471   */\n    tag_151:\n        /* \"#utility.yul\":1510:1511   */\n      0x00\n        /* \"#utility.yul\":1535:1588   */\n      tag_153\n        /* \"#utility.yul\":1580:1587   */\n      dup5\n        /* \"#utility.yul\":1571:1577   */\n      dup3\n        /* \"#utility.yul\":1560:1569   */\n      dup6\n        /* \"#utility.yul\":1556:1578   */\n      add\n        /* \"#utility.yul\":1535:1588   */\n      tag_125\n      jump\t// in\n    tag_153:\n        /* \"#utility.yul\":1525:1588   */\n      swap2\n      pop\n        /* \"#utility.yul\":1481:1598   */\n      pop\n        /* \"#utility.yul\":1276:1605   */\n      swap3\n      swap2\n      pop\n      pop\n      jump\t// out\n        /* \"#utility.yul\":1611:1791   */\n    tag_69:\n        /* \"#utility.yul\":1659:1736   */\n      0x4e487b7100000000000000000000000000000000000000000000000000000000\n        /* \"#utility.yul\":1656:1657   */\n      0x00\n        /* \"#utility.yul\":1649:1737   */\n      mstore\n        /* \"#utility.yul\":1756:1760   */\n      0x21\n        /* \"#utility.yul\":1753:1754   */\n      0x04\n        /* \"#utility.yul\":1746:1761   */\n      mstore\n        /* \"#utility.yul\":1780:1784   */\n      0x24\n        /* \"#utility.yul\":1777:1778   */\n      0x00\n        /* \"#utility.yul\":1770:1785   */\n      revert\n        /* \"#utility.yul\":1797:1910   */\n    tag_126:\n        /* \"#utility.yul\":1878:1879   */\n      0x04\n        /* \"#utility.yul\":1871:1876   */\n      dup2\n        /* \"#utility.yul\":1868:1880   */\n      lt\n        /* \"#utility.yul\":1858:1904   */\n      tag_156\n      jumpi\n        /* \"#utility.yul\":1884:1902   */\n      tag_157\n      tag_69\n      jump\t// in\n    tag_157:\n        /* \"#utility.yul\":1858:1904   */\n    tag_156:\n        /* \"#utility.yul\":1797:1910   */\n      pop\n      jump\t// out\n        /* \"#utility.yul\":1916:2043   */\n    tag_127:\n        /* \"#utility.yul\":1961:1968   */\n      0x00\n        /* \"#utility.yul\":1990:1995   */\n      dup2\n        /* \"#utility.yul\":1979:1995   */\n      swap1\n      pop\n        /* \"#utility.yul\":1996:2037   */\n      tag_159\n        /* \"#utility.yul\":2031:2036   */\n      dup3\n        /* \"#utility.yul\":1996:2037   */\n      tag_126\n      jump\t// in\n    tag_159:\n        /* \"#utility.yul\":1916:2043   */\n      swap2\n      swap1\n      pop\n      jump\t// out\n        /* \"#utility.yul\":2049:2176   */\n    tag_128:\n        /* \"#utility.yul\":2105:2114   */\n      0x00\n        /* \"#utility.yul\":2138:2170   */\n      tag_161\n        /* \"#utility.yul\":2164:2169   */\n      dup3\n        /* \"#utility.yul\":2138:2170   */\n      tag_127\n      jump\t// in\n    tag_161:\n        /* \"#utility.yul\":2125:2170   */\n      swap1\n      pop\n        /* \"#utility.yul\":2049:2176   */\n      swap2\n      swap1\n      pop\n      jump\t// out\n        /* \"#utility.yul\":2182:2325   */\n    tag_129:\n        /* \"#utility.yul\":2275:2318   */\n      tag_163\n        /* \"#utility.yul\":2312:2317   */\n      dup2\n        /* \"#utility.yul\":2275:2318   */\n      tag_128\n      jump\t// in\n    tag_163:\n        /* \"#utility.yul\":2270:2273   */\n      dup3\n        /* \"#utility.yul\":2263:2319   */\n      mstore\n        /* \"#utility.yul\":2182:2325   */\n      pop\n      pop\n      jump\t// out\n        /* \"#utility.yul\":2331:2565   */\n    tag_40:\n        /* \"#utility.yul\":2430:2434   */\n      0x00\n        /* \"#utility.yul\":2468:2470   */\n      0x20\n        /* \"#utility.yul\":2457:2466   */\n      dup3\n        /* \"#utility.yul\":2453:2471   */\n      add\n        /* \"#utility.yul\":2445:2471   */\n      swap1\n      pop\n        /* \"#utility.yul\":2481:2558   */\n      tag_165\n        /* \"#utility.yul\":2555:2556   */\n      0x00\n        /* \"#utility.yul\":2544:2553   */\n      dup4\n        /* \"#utility.yul\":2540:2557   */\n      add\n        /* \"#utility.yul\":2531:2537   */\n      dup5\n        /* \"#utility.yul\":2481:2558   */\n      tag_129\n      jump\t// in\n    tag_165:\n        /* \"#utility.yul\":2331:2565   */\n      swap3\n      swap2\n      pop\n      pop\n      jump\t// out\n        /* \"#utility.yul\":2571:2675   */\n    tag_130:\n        /* \"#utility.yul\":2616:2623   */\n      0x00\n        /* \"#utility.yul\":2645:2669   */\n      tag_167\n        /* \"#utility.yul\":2663:2668   */\n      dup3\n        /* \"#utility.yul\":2645:2669   */\n      tag_122\n      jump\t// in\n    tag_167:\n        /* \"#utility.yul\":2634:2669   */\n      swap1\n      pop\n        /* \"#utility.yul\":2571:2675   */\n      swap2\n      swap1\n      pop\n      jump\t// out\n        /* \"#utility.yul\":2681:2823   */\n    tag_131:\n        /* \"#utility.yul\":2784:2816   */\n      tag_169\n        /* \"#utility.yul\":2810:2815   */\n      dup2\n        /* \"#utility.yul\":2784:2816   */\n      tag_130\n      jump\t// in\n    tag_169:\n        /* \"#utility.yul\":2779:2782   */\n      dup3\n        /* \"#utility.yul\":2772:2817   */\n      mstore\n        /* \"#utility.yul\":2681:2823   */\n      pop\n      pop\n      jump\t// out\n        /* \"#utility.yul\":2829:3083   */\n    tag_49:\n        /* \"#utility.yul\":2938:2942   */\n      0x00\n        /* \"#utility.yul\":2976:2978   */\n      0x20\n        /* \"#utility.yul\":2965:2974   */\n      dup3\n        /* \"#utility.yul\":2961:2979   */\n      add\n        /* \"#utility.yul\":2953:2979   */\n      swap1\n      pop\n        /* \"#utility.yul\":2989:3076   */\n      tag_171\n        /* \"#utility.yul\":3073:3074   */\n      0x00\n        /* \"#utility.yul\":3062:3071   */\n      dup4\n        /* \"#utility.yul\":3058:3075   */\n      add\n        /* \"#utility.yul\":3049:3055   */\n      dup5\n        /* \"#utility.yul\":2989:3076   */\n      tag_131\n      jump\t// in\n    tag_171:\n        /* \"#utility.yul\":2829:3083   */\n      swap3\n      swap2\n      pop\n      pop\n      jump\t// out\n        /* \"#utility.yul\":3089:3269   */\n    tag_132:\n        /* \"#utility.yul\":3137:3214   */\n      0x4e487b7100000000000000000000000000000000000000000000000000000000\n        /* \"#utility.yul\":3134:3135   */\n      0x00\n        /* \"#utility.yul\":3127:3215   */\n      mstore\n        /* \"#utility.yul\":3234:3238   */\n      0x11\n        /* \"#utility.yul\":3231:3232   */\n      0x04\n        /* \"#utility.yul\":3224:3239   */\n      mstore\n        /* \"#utility.yul\":3258:3262   */\n      0x24\n        /* \"#utility.yul\":3255:3256   */\n      0x00\n        /* \"#utility.yul\":3248:3263   */\n      revert\n        /* \"#utility.yul\":3275:3466   */\n    tag_89:\n        /* \"#utility.yul\":3315:3319   */\n      0x00\n        /* \"#utility.yul\":3335:3355   */\n      tag_174\n        /* \"#utility.yul\":3353:3354   */\n      dup3\n        /* \"#utility.yul\":3335:3355   */\n      tag_117\n      jump\t// in\n    tag_174:\n        /* \"#utility.yul\":3330:3355   */\n      swap2\n      pop\n        /* \"#utility.yul\":3369:3389   */\n      tag_175\n        /* \"#utility.yul\":3387:3388   */\n      dup4\n        /* \"#utility.yul\":3369:3389   */\n      tag_117\n      jump\t// in\n    tag_175:\n        /* \"#utility.yul\":3364:3389   */\n      swap3\n      pop\n        /* \"#utility.yul\":3408:3409   */\n      dup3\n        /* \"#utility.yul\":3405:3406   */\n      dup3\n        /* \"#utility.yul\":3402:3410   */\n      lt\n        /* \"#utility.yul\":3399:3433   */\n      iszero\n      tag_176\n      jumpi\n        /* \"#utility.yul\":3413:3431   */\n      tag_177\n      tag_132\n      jump\t// in\n    tag_177:\n        /* \"#utility.yul\":3399:3433   */\n    tag_176:\n        /* \"#utility.yul\":3458:3459   */\n      dup3\n        /* \"#utility.yul\":3455:3456   */\n      dup3\n        /* \"#utility.yul\":3451:3460   */\n      sub\n        /* \"#utility.yul\":3443:3460   */\n      swap1\n      pop\n        /* \"#utility.yul\":3275:3466   */\n      swap3\n      swap2\n      pop\n      pop\n      jump\t// out\n        /* \"#utility.yul\":3472:3777   */\n    tag_105:\n        /* \"#utility.yul\":3512:3515   */\n      0x00\n        /* \"#utility.yul\":3531:3551   */\n      tag_179\n        /* \"#utility.yul\":3549:3550   */\n      dup3\n        /* \"#utility.yul\":3531:3551   */\n      tag_117\n      jump\t// in\n    tag_179:\n        /* \"#utility.yul\":3526:3551   */\n      swap2\n      pop\n        /* \"#utility.yul\":3565:3585   */\n      tag_180\n        /* \"#utility.yul\":3583:3584   */\n      dup4\n        /* \"#utility.yul\":3565:3585   */\n      tag_117\n      jump\t// in\n    tag_180:\n        /* \"#utility.yul\":3560:3585   */\n      swap3\n      pop\n        /* \"#utility.yul\":3719:3720   */\n      dup3\n        /* \"#utility.yul\":3651:3717   */\n      0xffffffffffffffffffffffffffffffffffffffffffffffffffffffffffffffff\n        /* \"#utility.yul\":3647:3721   */\n      sub\n        /* \"#utility.yul\":3644:3645   */\n      dup3\n        /* \"#utility.yul\":3641:3722   */\n      gt\n        /* \"#utility.yul\":3638:3745   */\n      iszero\n      tag_181\n      jumpi\n        /* \"#utility.yul\":3725:3743   */\n      tag_182\n      tag_132\n      jump\t// in\n    tag_182:\n        /* \"#utility.yul\":3638:3745   */\n    tag_181:\n        /* \"#utility.yul\":3769:3770   */\n      dup3\n        /* \"#utility.yul\":3766:3767   */\n      dup3\n        /* \"#utility.yul\":3762:3771   */\n      add\n        /* \"#utility.yul\":3755:3771   */\n      swap1\n      pop\n        /* \"#utility.yul\":3472:3777   */\n      swap3\n      swap2\n      pop\n      pop\n      jump\t// out\n\n    auxdata: 0xa2646970667358221220aabaef5a081d9e5e6d6e830bf7d9dc362dc3d0c607e5d815049255666c114feb64736f6c634300080d0033\n}\n",
				"bytecode": {
					"linkReferences": {},
					"object": "608060405234801561001057600080fd5b50336000806101000a81548173ffffffffffffffffffffffffffffffffffffffff021916908373ffffffffffffffffffffffffffffffffffffffff1602179055506001600360006101000a81548160ff0219169083600381111561007757610076610088565b5b0217905550436001819055506100b7565b7f4e487b7100000000000000000000000000000000000000000000000000000000600052602160045260246000fd5b610caf806100c66000396000f3fe6080604052600436106100a75760003560e01c8063834ee41711610064578063834ee417146101985780638da5cb5b146101c357806391f90157146101ee578063d57bde7914610219578063ecfc7ecc14610244578063f5b56c561461024e576100a7565b806316243356146100ac5780632352f320146100d7578063371303c0146100ee5780633b1cc3401461011957806362ea82db146101305780637fb450991461016d575b600080fd5b3480156100b857600080fd5b506100c1610279565b6040516100ce9190610a47565b60405180910390f35b3480156100e357600080fd5b506100ec61027f565b005b3480156100fa57600080fd5b50610103610303565b6040516101109190610a47565b60405180910390f35b34801561012557600080fd5b5061012e610309565b005b34801561013c57600080fd5b5061015760048036038101906101529190610ac5565b610680565b6040516101649190610a47565b60405180910390f35b34801561017957600080fd5b50610182610698565b60405161018f9190610b69565b60405180910390f35b3480156101a457600080fd5b506101ad6106ab565b6040516101ba9190610a47565b60405180910390f35b3480156101cf57600080fd5b506101d86106b1565b6040516101e59190610ba5565b60405180910390f35b3480156101fa57600080fd5b506102036106d5565b6040516102109190610ba5565b60405180910390f35b34801561022557600080fd5b5061022e6106fb565b60405161023b9190610a47565b60405180910390f35b61024c610701565b005b34801561025a57600080fd5b50610263610a0d565b6040516102709190610a47565b60405180910390f35b60025481565b60008054906101000a900473ffffffffffffffffffffffffffffffffffffffff1673ffffffffffffffffffffffffffffffffffffffff163373ffffffffffffffffffffffffffffffffffffffff16146102d757600080fd5b60038060006101000a81548160ff021916908360038111156102fc576102fb610af2565b5b0217905550565b60065481565b60038081111561031c5761031b610af2565b5b600360009054906101000a900460ff16600381111561033e5761033d610af2565b5b148061034b575060025443115b61035457600080fd5b60008054906101000a900473ffffffffffffffffffffffffffffffffffffffff1673ffffffffffffffffffffffffffffffffffffffff163373ffffffffffffffffffffffffffffffffffffffff1614806103ed57506000600860003373ffffffffffffffffffffffffffffffffffffffff1673ffffffffffffffffffffffffffffffffffffffff16815260200190815260200160002054115b6103f657600080fd5b60008060038081111561040c5761040b610af2565b5b600360009054906101000a900460ff16600381111561042e5761042d610af2565b5b0361047d57339150600860003373ffffffffffffffffffffffffffffffffffffffff1673ffffffffffffffffffffffffffffffffffffffff168152602001908152602001600020549050610635565b60008054906101000a900473ffffffffffffffffffffffffffffffffffffffff1673ffffffffffffffffffffffffffffffffffffffff163373ffffffffffffffffffffffffffffffffffffffff16036104fd5760008054906101000a900473ffffffffffffffffffffffffffffffffffffffff1691506005549050610634565b600760009054906101000a900473ffffffffffffffffffffffffffffffffffffffff1673ffffffffffffffffffffffffffffffffffffffff163373ffffffffffffffffffffffffffffffffffffffff16036105ed57600760009054906101000a900473ffffffffffffffffffffffffffffffffffffffff16915060055460086000600760009054906101000a900473ffffffffffffffffffffffffffffffffffffffff1673ffffffffffffffffffffffffffffffffffffffff1673ffffffffffffffffffffffffffffffffffffffff168152602001908152602001600020546105e69190610bef565b9050610633565b339150600860003373ffffffffffffffffffffffffffffffffffffffff1673ffffffffffffffffffffffffffffffffffffffff1681526020019081526020016000205490505b5b5b8173ffffffffffffffffffffffffffffffffffffffff166108fc829081150290604051600060405180830381858888f1935050505015801561067b573d6000803e3d6000fd5b505050565b60086020528060005260406000206000915090505481565b600360009054906101000a900460ff1681565b60015481565b60008054906101000a900473ffffffffffffffffffffffffffffffffffffffff1681565b600760009054906101000a900473ffffffffffffffffffffffffffffffffffffffff1681565b60045481565b60008054906101000a900473ffffffffffffffffffffffffffffffffffffffff1673ffffffffffffffffffffffffffffffffffffffff163373ffffffffffffffffffffffffffffffffffffffff160361075957600080fd5b600154431161076757600080fd5b6001600381111561077b5761077a610af2565b5b600360009054906101000a900460ff16600381111561079d5761079c610af2565b5b146107a757600080fd5b670de0b6b3a764000034116107bb57600080fd5b6000600654600860003373ffffffffffffffffffffffffffffffffffffffff1673ffffffffffffffffffffffffffffffffffffffff1681526020019081526020016000205461080a9190610c23565b9050600554811161081a57600080fd5b80600860003373ffffffffffffffffffffffffffffffffffffffff1673ffffffffffffffffffffffffffffffffffffffff1681526020019081526020016000208190555060086000600760009054906101000a900473ffffffffffffffffffffffffffffffffffffffff1673ffffffffffffffffffffffffffffffffffffffff1673ffffffffffffffffffffffffffffffffffffffff1681526020019081526020016000205481101561094a5761093f600654826108d89190610c23565b60086000600760009054906101000a900473ffffffffffffffffffffffffffffffffffffffff1673ffffffffffffffffffffffffffffffffffffffff1673ffffffffffffffffffffffffffffffffffffffff16815260200190815260200160002054610a13565b600581905550610a0a565b6109c28160065460086000600760009054906101000a900473ffffffffffffffffffffffffffffffffffffffff1673ffffffffffffffffffffffffffffffffffffffff1673ffffffffffffffffffffffffffffffffffffffff168152602001908152602001600020546109bd9190610c23565b610a13565b60058190555033600760006101000a81548173ffffffffffffffffffffffffffffffffffffffff021916908373ffffffffffffffffffffffffffffffffffffffff1602179055505b50565b60055481565b6000818311610a2457829050610a28565b8190505b92915050565b6000819050919050565b610a4181610a2e565b82525050565b6000602082019050610a5c6000830184610a38565b92915050565b600080fd5b600073ffffffffffffffffffffffffffffffffffffffff82169050919050565b6000610a9282610a67565b9050919050565b610aa281610a87565b8114610aad57600080fd5b50565b600081359050610abf81610a99565b92915050565b600060208284031215610adb57610ada610a62565b5b6000610ae984828501610ab0565b91505092915050565b7f4e487b7100000000000000000000000000000000000000000000000000000000600052602160045260246000fd5b60048110610b3257610b31610af2565b5b50565b6000819050610b4382610b21565b919050565b6000610b5382610b35565b9050919050565b610b6381610b48565b82525050565b6000602082019050610b7e6000830184610b5a565b92915050565b6000610b8f82610a67565b9050919050565b610b9f81610b84565b82525050565b6000602082019050610bba6000830184610b96565b92915050565b7f4e487b7100000000000000000000000000000000000000000000000000000000600052601160045260246000fd5b6000610bfa82610a2e565b9150610c0583610a2e565b925082821015610c1857610c17610bc0565b5b828203905092915050565b6000610c2e82610a2e565b9150610c3983610a2e565b9250827fffffffffffffffffffffffffffffffffffffffffffffffffffffffffffffffff03821115610c6e57610c6d610bc0565b5b82820190509291505056fea2646970667358221220aabaef5a081d9e5e6d6e830bf7d9dc362dc3d0c607e5d815049255666c114feb64736f6c634300080d0033",
					"opcodes": "PUSH1 0x80 PUSH1 0x40 MSTORE CALLVALUE DUP1 ISZERO PUSH2 0x10 JUMPI PUSH1 0x0 DUP1 REVERT JUMPDEST POP CALLER PUSH1 0x0 DUP1 PUSH2 0x100 EXP DUP2 SLOAD DUP2 PUSH20 0xFFFFFFFFFFFFFFFFFFFFFFFFFFFFFFFFFFFFFFFF MUL NOT AND SWAP1 DUP4 PUSH20 0xFFFFFFFFFFFFFFFFFFFFFFFFFFFFFFFFFFFFFFFF AND MUL OR SWAP1 SSTORE POP PUSH1 0x1 PUSH1 0x3 PUSH1 0x0 PUSH2 0x100 EXP DUP2 SLOAD DUP2 PUSH1 0xFF MUL NOT AND SWAP1 DUP4 PUSH1 0x3 DUP2 GT ISZERO PUSH2 0x77 JUMPI PUSH2 0x76 PUSH2 0x88 JUMP JUMPDEST JUMPDEST MUL OR SWAP1 SSTORE POP NUMBER PUSH1 0x1 DUP2 SWAP1 SSTORE POP PUSH2 0xB7 JUMP JUMPDEST PUSH32 0x4E487B7100000000000000000000000000000000000000000000000000000000 PUSH1 0x0 MSTORE PUSH1 0x21 PUSH1 0x4 MSTORE PUSH1 0x24 PUSH1 0x0 REVERT JUMPDEST PUSH2 0xCAF DUP1 PUSH2 0xC6 PUSH1 0x0 CODECOPY PUSH1 0x0 RETURN INVALID PUSH1 0x80 PUSH1 0x40 MSTORE PUSH1 0x4 CALLDATASIZE LT PUSH2 0xA7 JUMPI PUSH1 0x0 CALLDATALOAD PUSH1 0xE0 SHR DUP1 PUSH4 0x834EE417 GT PUSH2 0x64 JUMPI DUP1 PUSH4 0x834EE417 EQ PUSH2 0x198 JUMPI DUP1 PUSH4 0x8DA5CB5B EQ PUSH2 0x1C3 JUMPI DUP1 PUSH4 0x91F90157 EQ PUSH2 0x1EE JUMPI DUP1 PUSH4 0xD57BDE79 EQ PUSH2 0x219 JUMPI DUP1 PUSH4 0xECFC7ECC EQ PUSH2 0x244 JUMPI DUP1 PUSH4 0xF5B56C56 EQ PUSH2 0x24E JUMPI PUSH2 0xA7 JUMP JUMPDEST DUP1 PUSH4 0x16243356 EQ PUSH2 0xAC JUMPI DUP1 PUSH4 0x2352F320 EQ PUSH2 0xD7 JUMPI DUP1 PUSH4 0x371303C0 EQ PUSH2 0xEE JUMPI DUP1 PUSH4 0x3B1CC340 EQ PUSH2 0x119 JUMPI DUP1 PUSH4 0x62EA82DB EQ PUSH2 0x130 JUMPI DUP1 PUSH4 0x7FB45099 EQ PUSH2 0x16D JUMPI JUMPDEST PUSH1 0x0 DUP1 REVERT JUMPDEST CALLVALUE DUP1 ISZERO PUSH2 0xB8 JUMPI PUSH1 0x0 DUP1 REVERT JUMPDEST POP PUSH2 0xC1 PUSH2 0x279 JUMP JUMPDEST PUSH1 0x40 MLOAD PUSH2 0xCE SWAP2 SWAP1 PUSH2 0xA47 JUMP JUMPDEST PUSH1 0x40 MLOAD DUP1 SWAP2 SUB SWAP1 RETURN JUMPDEST CALLVALUE DUP1 ISZERO PUSH2 0xE3 JUMPI PUSH1 0x0 DUP1 REVERT JUMPDEST POP PUSH2 0xEC PUSH2 0x27F JUMP JUMPDEST STOP JUMPDEST CALLVALUE DUP1 ISZERO PUSH2 0xFA JUMPI PUSH1 0x0 DUP1 REVERT JUMPDEST POP PUSH2 0x103 PUSH2 0x303 JUMP JUMPDEST PUSH1 0x40 MLOAD PUSH2 0x110 SWAP2 SWAP1 PUSH2 0xA47 JUMP JUMPDEST PUSH1 0x40 MLOAD DUP1 SWAP2 SUB SWAP1 RETURN JUMPDEST CALLVALUE DUP1 ISZERO PUSH2 0x125 JUMPI PUSH1 0x0 DUP1 REVERT JUMPDEST POP PUSH2 0x12E PUSH2 0x309 JUMP JUMPDEST STOP JUMPDEST CALLVALUE DUP1 ISZERO PUSH2 0x13C JUMPI PUSH1 0x0 DUP1 REVERT JUMPDEST POP PUSH2 0x157 PUSH1 0x4 DUP1 CALLDATASIZE SUB DUP2 ADD SWAP1 PUSH2 0x152 SWAP2 SWAP1 PUSH2 0xAC5 JUMP JUMPDEST PUSH2 0x680 JUMP JUMPDEST PUSH1 0x40 MLOAD PUSH2 0x164 SWAP2 SWAP1 PUSH2 0xA47 JUMP JUMPDEST PUSH1 0x40 MLOAD DUP1 SWAP2 SUB SWAP1 RETURN JUMPDEST CALLVALUE DUP1 ISZERO PUSH2 0x179 JUMPI PUSH1 0x0 DUP1 REVERT JUMPDEST POP PUSH2 0x182 PUSH2 0x698 JUMP JUMPDEST PUSH1 0x40 MLOAD PUSH2 0x18F SWAP2 SWAP1 PUSH2 0xB69 JUMP JUMPDEST PUSH1 0x40 MLOAD DUP1 SWAP2 SUB SWAP1 RETURN JUMPDEST CALLVALUE DUP1 ISZERO PUSH2 0x1A4 JUMPI PUSH1 0x0 DUP1 REVERT JUMPDEST POP PUSH2 0x1AD PUSH2 0x6AB JUMP JUMPDEST PUSH1 0x40 MLOAD PUSH2 0x1BA SWAP2 SWAP1 PUSH2 0xA47 JUMP JUMPDEST PUSH1 0x40 MLOAD DUP1 SWAP2 SUB SWAP1 RETURN JUMPDEST CALLVALUE DUP1 ISZERO PUSH2 0x1CF JUMPI PUSH1 0x0 DUP1 REVERT JUMPDEST POP PUSH2 0x1D8 PUSH2 0x6B1 JUMP JUMPDEST PUSH1 0x40 MLOAD PUSH2 0x1E5 SWAP2 SWAP1 PUSH2 0xBA5 JUMP JUMPDEST PUSH1 0x40 MLOAD DUP1 SWAP2 SUB SWAP1 RETURN JUMPDEST CALLVALUE DUP1 ISZERO PUSH2 0x1FA JUMPI PUSH1 0x0 DUP1 REVERT JUMPDEST POP PUSH2 0x203 PUSH2 0x6D5 JUMP JUMPDEST PUSH1 0x40 MLOAD PUSH2 0x210 SWAP2 SWAP1 PUSH2 0xBA5 JUMP JUMPDEST PUSH1 0x40 MLOAD DUP1 SWAP2 SUB SWAP1 RETURN JUMPDEST CALLVALUE DUP1 ISZERO PUSH2 0x225 JUMPI PUSH1 0x0 DUP1 REVERT JUMPDEST POP PUSH2 0x22E PUSH2 0x6FB JUMP JUMPDEST PUSH1 0x40 MLOAD PUSH2 0x23B SWAP2 SWAP1 PUSH2 0xA47 JUMP JUMPDEST PUSH1 0x40 MLOAD DUP1 SWAP2 SUB SWAP1 RETURN JUMPDEST PUSH2 0x24C PUSH2 0x701 JUMP JUMPDEST STOP JUMPDEST CALLVALUE DUP1 ISZERO PUSH2 0x25A JUMPI PUSH1 0x0 DUP1 REVERT JUMPDEST POP PUSH2 0x263 PUSH2 0xA0D JUMP JUMPDEST PUSH1 0x40 MLOAD PUSH2 0x270 SWAP2 SWAP1 PUSH2 0xA47 JUMP JUMPDEST PUSH1 0x40 MLOAD DUP1 SWAP2 SUB SWAP1 RETURN JUMPDEST PUSH1 0x2 SLOAD DUP2 JUMP JUMPDEST PUSH1 0x0 DUP1 SLOAD SWAP1 PUSH2 0x100 EXP SWAP1 DIV PUSH20 0xFFFFFFFFFFFFFFFFFFFFFFFFFFFFFFFFFFFFFFFF AND PUSH20 0xFFFFFFFFFFFFFFFFFFFFFFFFFFFFFFFFFFFFFFFF AND CALLER PUSH20 0xFFFFFFFFFFFFFFFFFFFFFFFFFFFFFFFFFFFFFFFF AND EQ PUSH2 0x2D7 JUMPI PUSH1 0x0 DUP1 REVERT JUMPDEST PUSH1 0x3 DUP1 PUSH1 0x0 PUSH2 0x100 EXP DUP2 SLOAD DUP2 PUSH1 0xFF MUL NOT AND SWAP1 DUP4 PUSH1 0x3 DUP2 GT ISZERO PUSH2 0x2FC JUMPI PUSH2 0x2FB PUSH2 0xAF2 JUMP JUMPDEST JUMPDEST MUL OR SWAP1 SSTORE POP JUMP JUMPDEST PUSH1 0x6 SLOAD DUP2 JUMP JUMPDEST PUSH1 0x3 DUP1 DUP2 GT ISZERO PUSH2 0x31C JUMPI PUSH2 0x31B PUSH2 0xAF2 JUMP JUMPDEST JUMPDEST PUSH1 0x3 PUSH1 0x0 SWAP1 SLOAD SWAP1 PUSH2 0x100 EXP SWAP1 DIV PUSH1 0xFF AND PUSH1 0x3 DUP2 GT ISZERO PUSH2 0x33E JUMPI PUSH2 0x33D PUSH2 0xAF2 JUMP JUMPDEST JUMPDEST EQ DUP1 PUSH2 0x34B JUMPI POP PUSH1 0x2 SLOAD NUMBER GT JUMPDEST PUSH2 0x354 JUMPI PUSH1 0x0 DUP1 REVERT JUMPDEST PUSH1 0x0 DUP1 SLOAD SWAP1 PUSH2 0x100 EXP SWAP1 DIV PUSH20 0xFFFFFFFFFFFFFFFFFFFFFFFFFFFFFFFFFFFFFFFF AND PUSH20 0xFFFFFFFFFFFFFFFFFFFFFFFFFFFFFFFFFFFFFFFF AND CALLER PUSH20 0xFFFFFFFFFFFFFFFFFFFFFFFFFFFFFFFFFFFFFFFF AND EQ DUP1 PUSH2 0x3ED JUMPI POP PUSH1 0x0 PUSH1 0x8 PUSH1 0x0 CALLER PUSH20 0xFFFFFFFFFFFFFFFFFFFFFFFFFFFFFFFFFFFFFFFF AND PUSH20 0xFFFFFFFFFFFFFFFFFFFFFFFFFFFFFFFFFFFFFFFF AND DUP2 MSTORE PUSH1 0x20 ADD SWAP1 DUP2 MSTORE PUSH1 0x20 ADD PUSH1 0x0 KECCAK256 SLOAD GT JUMPDEST PUSH2 0x3F6 JUMPI PUSH1 0x0 DUP1 REVERT JUMPDEST PUSH1 0x0 DUP1 PUSH1 0x3 DUP1 DUP2 GT ISZERO PUSH2 0x40C JUMPI PUSH2 0x40B PUSH2 0xAF2 JUMP JUMPDEST JUMPDEST PUSH1 0x3 PUSH1 0x0 SWAP1 SLOAD SWAP1 PUSH2 0x100 EXP SWAP1 DIV PUSH1 0xFF AND PUSH1 0x3 DUP2 GT ISZERO PUSH2 0x42E JUMPI PUSH2 0x42D PUSH2 0xAF2 JUMP JUMPDEST JUMPDEST SUB PUSH2 0x47D JUMPI CALLER SWAP2 POP PUSH1 0x8 PUSH1 0x0 CALLER PUSH20 0xFFFFFFFFFFFFFFFFFFFFFFFFFFFFFFFFFFFFFFFF AND PUSH20 0xFFFFFFFFFFFFFFFFFFFFFFFFFFFFFFFFFFFFFFFF AND DUP2 MSTORE PUSH1 0x20 ADD SWAP1 DUP2 MSTORE PUSH1 0x20 ADD PUSH1 0x0 KECCAK256 SLOAD SWAP1 POP PUSH2 0x635 JUMP JUMPDEST PUSH1 0x0 DUP1 SLOAD SWAP1 PUSH2 0x100 EXP SWAP1 DIV PUSH20 0xFFFFFFFFFFFFFFFFFFFFFFFFFFFFFFFFFFFFFFFF AND PUSH20 0xFFFFFFFFFFFFFFFFFFFFFFFFFFFFFFFFFFFFFFFF AND CALLER PUSH20 0xFFFFFFFFFFFFFFFFFFFFFFFFFFFFFFFFFFFFFFFF AND SUB PUSH2 0x4FD JUMPI PUSH1 0x0 DUP1 SLOAD SWAP1 PUSH2 0x100 EXP SWAP1 DIV PUSH20 0xFFFFFFFFFFFFFFFFFFFFFFFFFFFFFFFFFFFFFFFF AND SWAP2 POP PUSH1 0x5 SLOAD SWAP1 POP PUSH2 0x634 JUMP JUMPDEST PUSH1 0x7 PUSH1 0x0 SWAP1 SLOAD SWAP1 PUSH2 0x100 EXP SWAP1 DIV PUSH20 0xFFFFFFFFFFFFFFFFFFFFFFFFFFFFFFFFFFFFFFFF AND PUSH20 0xFFFFFFFFFFFFFFFFFFFFFFFFFFFFFFFFFFFFFFFF AND CALLER PUSH20 0xFFFFFFFFFFFFFFFFFFFFFFFFFFFFFFFFFFFFFFFF AND SUB PUSH2 0x5ED JUMPI PUSH1 0x7 PUSH1 0x0 SWAP1 SLOAD SWAP1 PUSH2 0x100 EXP SWAP1 DIV PUSH20 0xFFFFFFFFFFFFFFFFFFFFFFFFFFFFFFFFFFFFFFFF AND SWAP2 POP PUSH1 0x5 SLOAD PUSH1 0x8 PUSH1 0x0 PUSH1 0x7 PUSH1 0x0 SWAP1 SLOAD SWAP1 PUSH2 0x100 EXP SWAP1 DIV PUSH20 0xFFFFFFFFFFFFFFFFFFFFFFFFFFFFFFFFFFFFFFFF AND PUSH20 0xFFFFFFFFFFFFFFFFFFFFFFFFFFFFFFFFFFFFFFFF AND PUSH20 0xFFFFFFFFFFFFFFFFFFFFFFFFFFFFFFFFFFFFFFFF AND DUP2 MSTORE PUSH1 0x20 ADD SWAP1 DUP2 MSTORE PUSH1 0x20 ADD PUSH1 0x0 KECCAK256 SLOAD PUSH2 0x5E6 SWAP2 SWAP1 PUSH2 0xBEF JUMP JUMPDEST SWAP1 POP PUSH2 0x633 JUMP JUMPDEST CALLER SWAP2 POP PUSH1 0x8 PUSH1 0x0 CALLER PUSH20 0xFFFFFFFFFFFFFFFFFFFFFFFFFFFFFFFFFFFFFFFF AND PUSH20 0xFFFFFFFFFFFFFFFFFFFFFFFFFFFFFFFFFFFFFFFF AND DUP2 MSTORE PUSH1 0x20 ADD SWAP1 DUP2 MSTORE PUSH1 0x20 ADD PUSH1 0x0 KECCAK256 SLOAD SWAP1 POP JUMPDEST JUMPDEST JUMPDEST DUP2 PUSH20 0xFFFFFFFFFFFFFFFFFFFFFFFFFFFFFFFFFFFFFFFF AND PUSH2 0x8FC DUP3 SWAP1 DUP2 ISZERO MUL SWAP1 PUSH1 0x40 MLOAD PUSH1 0x0 PUSH1 0x40 MLOAD DUP1 DUP4 SUB DUP2 DUP6 DUP9 DUP9 CALL SWAP4 POP POP POP POP ISZERO DUP1 ISZERO PUSH2 0x67B JUMPI RETURNDATASIZE PUSH1 0x0 DUP1 RETURNDATACOPY RETURNDATASIZE PUSH1 0x0 REVERT JUMPDEST POP POP POP JUMP JUMPDEST PUSH1 0x8 PUSH1 0x20 MSTORE DUP1 PUSH1 0x0 MSTORE PUSH1 0x40 PUSH1 0x0 KECCAK256 PUSH1 0x0 SWAP2 POP SWAP1 POP SLOAD DUP2 JUMP JUMPDEST PUSH1 0x3 PUSH1 0x0 SWAP1 SLOAD SWAP1 PUSH2 0x100 EXP SWAP1 DIV PUSH1 0xFF AND DUP2 JUMP JUMPDEST PUSH1 0x1 SLOAD DUP2 JUMP JUMPDEST PUSH1 0x0 DUP1 SLOAD SWAP1 PUSH2 0x100 EXP SWAP1 DIV PUSH20 0xFFFFFFFFFFFFFFFFFFFFFFFFFFFFFFFFFFFFFFFF AND DUP2 JUMP JUMPDEST PUSH1 0x7 PUSH1 0x0 SWAP1 SLOAD SWAP1 PUSH2 0x100 EXP SWAP1 DIV PUSH20 0xFFFFFFFFFFFFFFFFFFFFFFFFFFFFFFFFFFFFFFFF AND DUP2 JUMP JUMPDEST PUSH1 0x4 SLOAD DUP2 JUMP JUMPDEST PUSH1 0x0 DUP1 SLOAD SWAP1 PUSH2 0x100 EXP SWAP1 DIV PUSH20 0xFFFFFFFFFFFFFFFFFFFFFFFFFFFFFFFFFFFFFFFF AND PUSH20 0xFFFFFFFFFFFFFFFFFFFFFFFFFFFFFFFFFFFFFFFF AND CALLER PUSH20 0xFFFFFFFFFFFFFFFFFFFFFFFFFFFFFFFFFFFFFFFF AND SUB PUSH2 0x759 JUMPI PUSH1 0x0 DUP1 REVERT JUMPDEST PUSH1 0x1 SLOAD NUMBER GT PUSH2 0x767 JUMPI PUSH1 0x0 DUP1 REVERT JUMPDEST PUSH1 0x1 PUSH1 0x3 DUP2 GT ISZERO PUSH2 0x77B JUMPI PUSH2 0x77A PUSH2 0xAF2 JUMP JUMPDEST JUMPDEST PUSH1 0x3 PUSH1 0x0 SWAP1 SLOAD SWAP1 PUSH2 0x100 EXP SWAP1 DIV PUSH1 0xFF AND PUSH1 0x3 DUP2 GT ISZERO PUSH2 0x79D JUMPI PUSH2 0x79C PUSH2 0xAF2 JUMP JUMPDEST JUMPDEST EQ PUSH2 0x7A7 JUMPI PUSH1 0x0 DUP1 REVERT JUMPDEST PUSH8 0xDE0B6B3A7640000 CALLVALUE GT PUSH2 0x7BB JUMPI PUSH1 0x0 DUP1 REVERT JUMPDEST PUSH1 0x0 PUSH1 0x6 SLOAD PUSH1 0x8 PUSH1 0x0 CALLER PUSH20 0xFFFFFFFFFFFFFFFFFFFFFFFFFFFFFFFFFFFFFFFF AND PUSH20 0xFFFFFFFFFFFFFFFFFFFFFFFFFFFFFFFFFFFFFFFF AND DUP2 MSTORE PUSH1 0x20 ADD SWAP1 DUP2 MSTORE PUSH1 0x20 ADD PUSH1 0x0 KECCAK256 SLOAD PUSH2 0x80A SWAP2 SWAP1 PUSH2 0xC23 JUMP JUMPDEST SWAP1 POP PUSH1 0x5 SLOAD DUP2 GT PUSH2 0x81A JUMPI PUSH1 0x0 DUP1 REVERT JUMPDEST DUP1 PUSH1 0x8 PUSH1 0x0 CALLER PUSH20 0xFFFFFFFFFFFFFFFFFFFFFFFFFFFFFFFFFFFFFFFF AND PUSH20 0xFFFFFFFFFFFFFFFFFFFFFFFFFFFFFFFFFFFFFFFF AND DUP2 MSTORE PUSH1 0x20 ADD SWAP1 DUP2 MSTORE PUSH1 0x20 ADD PUSH1 0x0 KECCAK256 DUP2 SWAP1 SSTORE POP PUSH1 0x8 PUSH1 0x0 PUSH1 0x7 PUSH1 0x0 SWAP1 SLOAD SWAP1 PUSH2 0x100 EXP SWAP1 DIV PUSH20 0xFFFFFFFFFFFFFFFFFFFFFFFFFFFFFFFFFFFFFFFF AND PUSH20 0xFFFFFFFFFFFFFFFFFFFFFFFFFFFFFFFFFFFFFFFF AND PUSH20 0xFFFFFFFFFFFFFFFFFFFFFFFFFFFFFFFFFFFFFFFF AND DUP2 MSTORE PUSH1 0x20 ADD SWAP1 DUP2 MSTORE PUSH1 0x20 ADD PUSH1 0x0 KECCAK256 SLOAD DUP2 LT ISZERO PUSH2 0x94A JUMPI PUSH2 0x93F PUSH1 0x6 SLOAD DUP3 PUSH2 0x8D8 SWAP2 SWAP1 PUSH2 0xC23 JUMP JUMPDEST PUSH1 0x8 PUSH1 0x0 PUSH1 0x7 PUSH1 0x0 SWAP1 SLOAD SWAP1 PUSH2 0x100 EXP SWAP1 DIV PUSH20 0xFFFFFFFFFFFFFFFFFFFFFFFFFFFFFFFFFFFFFFFF AND PUSH20 0xFFFFFFFFFFFFFFFFFFFFFFFFFFFFFFFFFFFFFFFF AND PUSH20 0xFFFFFFFFFFFFFFFFFFFFFFFFFFFFFFFFFFFFFFFF AND DUP2 MSTORE PUSH1 0x20 ADD SWAP1 DUP2 MSTORE PUSH1 0x20 ADD PUSH1 0x0 KECCAK256 SLOAD PUSH2 0xA13 JUMP JUMPDEST PUSH1 0x5 DUP2 SWAP1 SSTORE POP PUSH2 0xA0A JUMP JUMPDEST PUSH2 0x9C2 DUP2 PUSH1 0x6 SLOAD PUSH1 0x8 PUSH1 0x0 PUSH1 0x7 PUSH1 0x0 SWAP1 SLOAD SWAP1 PUSH2 0x100 EXP SWAP1 DIV PUSH20 0xFFFFFFFFFFFFFFFFFFFFFFFFFFFFFFFFFFFFFFFF AND PUSH20 0xFFFFFFFFFFFFFFFFFFFFFFFFFFFFFFFFFFFFFFFF AND PUSH20 0xFFFFFFFFFFFFFFFFFFFFFFFFFFFFFFFFFFFFFFFF AND DUP2 MSTORE PUSH1 0x20 ADD SWAP1 DUP2 MSTORE PUSH1 0x20 ADD PUSH1 0x0 KECCAK256 SLOAD PUSH2 0x9BD SWAP2 SWAP1 PUSH2 0xC23 JUMP JUMPDEST PUSH2 0xA13 JUMP JUMPDEST PUSH1 0x5 DUP2 SWAP1 SSTORE POP CALLER PUSH1 0x7 PUSH1 0x0 PUSH2 0x100 EXP DUP2 SLOAD DUP2 PUSH20 0xFFFFFFFFFFFFFFFFFFFFFFFFFFFFFFFFFFFFFFFF MUL NOT AND SWAP1 DUP4 PUSH20 0xFFFFFFFFFFFFFFFFFFFFFFFFFFFFFFFFFFFFFFFF AND MUL OR SWAP1 SSTORE POP JUMPDEST POP JUMP JUMPDEST PUSH1 0x5 SLOAD DUP2 JUMP JUMPDEST PUSH1 0x0 DUP2 DUP4 GT PUSH2 0xA24 JUMPI DUP3 SWAP1 POP PUSH2 0xA28 JUMP JUMPDEST DUP2 SWAP1 POP JUMPDEST SWAP3 SWAP2 POP POP JUMP JUMPDEST PUSH1 0x0 DUP2 SWAP1 POP SWAP2 SWAP1 POP JUMP JUMPDEST PUSH2 0xA41 DUP2 PUSH2 0xA2E JUMP JUMPDEST DUP3 MSTORE POP POP JUMP JUMPDEST PUSH1 0x0 PUSH1 0x20 DUP3 ADD SWAP1 POP PUSH2 0xA5C PUSH1 0x0 DUP4 ADD DUP5 PUSH2 0xA38 JUMP JUMPDEST SWAP3 SWAP2 POP POP JUMP JUMPDEST PUSH1 0x0 DUP1 REVERT JUMPDEST PUSH1 0x0 PUSH20 0xFFFFFFFFFFFFFFFFFFFFFFFFFFFFFFFFFFFFFFFF DUP3 AND SWAP1 POP SWAP2 SWAP1 POP JUMP JUMPDEST PUSH1 0x0 PUSH2 0xA92 DUP3 PUSH2 0xA67 JUMP JUMPDEST SWAP1 POP SWAP2 SWAP1 POP JUMP JUMPDEST PUSH2 0xAA2 DUP2 PUSH2 0xA87 JUMP JUMPDEST DUP2 EQ PUSH2 0xAAD JUMPI PUSH1 0x0 DUP1 REVERT JUMPDEST POP JUMP JUMPDEST PUSH1 0x0 DUP2 CALLDATALOAD SWAP1 POP PUSH2 0xABF DUP2 PUSH2 0xA99 JUMP JUMPDEST SWAP3 SWAP2 POP POP JUMP JUMPDEST PUSH1 0x0 PUSH1 0x20 DUP3 DUP5 SUB SLT ISZERO PUSH2 0xADB JUMPI PUSH2 0xADA PUSH2 0xA62 JUMP JUMPDEST JUMPDEST PUSH1 0x0 PUSH2 0xAE9 DUP5 DUP3 DUP6 ADD PUSH2 0xAB0 JUMP JUMPDEST SWAP2 POP POP SWAP3 SWAP2 POP POP JUMP JUMPDEST PUSH32 0x4E487B7100000000000000000000000000000000000000000000000000000000 PUSH1 0x0 MSTORE PUSH1 0x21 PUSH1 0x4 MSTORE PUSH1 0x24 PUSH1 0x0 REVERT JUMPDEST PUSH1 0x4 DUP2 LT PUSH2 0xB32 JUMPI PUSH2 0xB31 PUSH2 0xAF2 JUMP JUMPDEST JUMPDEST POP JUMP JUMPDEST PUSH1 0x0 DUP2 SWAP1 POP PUSH2 0xB43 DUP3 PUSH2 0xB21 JUMP JUMPDEST SWAP2 SWAP1 POP JUMP JUMPDEST PUSH1 0x0 PUSH2 0xB53 DUP3 PUSH2 0xB35 JUMP JUMPDEST SWAP1 POP SWAP2 SWAP1 POP JUMP JUMPDEST PUSH2 0xB63 DUP2 PUSH2 0xB48 JUMP JUMPDEST DUP3 MSTORE POP POP JUMP JUMPDEST PUSH1 0x0 PUSH1 0x20 DUP3 ADD SWAP1 POP PUSH2 0xB7E PUSH1 0x0 DUP4 ADD DUP5 PUSH2 0xB5A JUMP JUMPDEST SWAP3 SWAP2 POP POP JUMP JUMPDEST PUSH1 0x0 PUSH2 0xB8F DUP3 PUSH2 0xA67 JUMP JUMPDEST SWAP1 POP SWAP2 SWAP1 POP JUMP JUMPDEST PUSH2 0xB9F DUP2 PUSH2 0xB84 JUMP JUMPDEST DUP3 MSTORE POP POP JUMP JUMPDEST PUSH1 0x0 PUSH1 0x20 DUP3 ADD SWAP1 POP PUSH2 0xBBA PUSH1 0x0 DUP4 ADD DUP5 PUSH2 0xB96 JUMP JUMPDEST SWAP3 SWAP2 POP POP JUMP JUMPDEST PUSH32 0x4E487B7100000000000000000000000000000000000000000000000000000000 PUSH1 0x0 MSTORE PUSH1 0x11 PUSH1 0x4 MSTORE PUSH1 0x24 PUSH1 0x0 REVERT JUMPDEST PUSH1 0x0 PUSH2 0xBFA DUP3 PUSH2 0xA2E JUMP JUMPDEST SWAP2 POP PUSH2 0xC05 DUP4 PUSH2 0xA2E JUMP JUMPDEST SWAP3 POP DUP3 DUP3 LT ISZERO PUSH2 0xC18 JUMPI PUSH2 0xC17 PUSH2 0xBC0 JUMP JUMPDEST JUMPDEST DUP3 DUP3 SUB SWAP1 POP SWAP3 SWAP2 POP POP JUMP JUMPDEST PUSH1 0x0 PUSH2 0xC2E DUP3 PUSH2 0xA2E JUMP JUMPDEST SWAP2 POP PUSH2 0xC39 DUP4 PUSH2 0xA2E JUMP JUMPDEST SWAP3 POP DUP3 PUSH32 0xFFFFFFFFFFFFFFFFFFFFFFFFFFFFFFFFFFFFFFFFFFFFFFFFFFFFFFFFFFFFFFFF SUB DUP3 GT ISZERO PUSH2 0xC6E JUMPI PUSH2 0xC6D PUSH2 0xBC0 JUMP JUMPDEST JUMPDEST DUP3 DUP3 ADD SWAP1 POP SWAP3 SWAP2 POP POP JUMP INVALID LOG2 PUSH5 0x6970667358 0x22 SLT KECCAK256 0xAA 0xBA 0xEF GAS ADDMOD SAR SWAP15 0x5E PUSH14 0x6E830BF7D9DC362DC3D0C607E5D8 ISZERO DIV SWAP3 SSTORE PUSH7 0x6C114FEB64736F PUSH13 0x634300080D0033000000000000 "
				},
				"gasEstimates": {
					"creation": {
						"codeDepositCost": "649400",
						"executionCost": "71361",
						"totalCost": "720761"
					},
					"external": {
						"auctionEnds()": "infinite",
						"auctionState()": "2671",
						"bids(address)": "2903",
						"cancelAuc()": "26621",
						"end_time()": "2430",
						"highestBid()": "2495",
						"highestBidder()": "2558",
						"highestBindingBid()": "2539",
						"inc()": "2474",
						"owner()": "2533",
						"placeBid()": "infinite",
						"start_time()": "2429"
					},
					"internal": {
						"min(uint256,uint256)": "64"
					}
				},
				"methodIdentifiers": {
					"auctionEnds()": "3b1cc340",
					"auctionState()": "7fb45099",
					"bids(address)": "62ea82db",
					"cancelAuc()": "2352f320",
					"end_time()": "16243356",
					"highestBid()": "d57bde79",
					"highestBidder()": "91f90157",
					"highestBindingBid()": "f5b56c56",
					"inc()": "371303c0",
					"owner()": "8da5cb5b",
					"placeBid()": "ecfc7ecc",
					"start_time()": "834ee417"
				}
			},
			"storageLayout": {
				"storage": [
					{
						"astId": 3,
						"contract": "contracts/Auction.sol:Auction",
						"label": "owner",
						"offset": 0,
						"slot": "0",
						"type": "t_address_payable"
					},
					{
						"astId": 5,
						"contract": "contracts/Auction.sol:Auction",
						"label": "start_time",
						"offset": 0,
						"slot": "1",
						"type": "t_uint256"
					},
					{
						"astId": 7,
						"contract": "contracts/Auction.sol:Auction",
						"label": "end_time",
						"offset": 0,
						"slot": "2",
						"type": "t_uint256"
					},
					{
						"astId": 15,
						"contract": "contracts/Auction.sol:Auction",
						"label": "auctionState",
						"offset": 0,
						"slot": "3",
						"type": "t_enum(state)12"
					},
					{
						"astId": 17,
						"contract": "contracts/Auction.sol:Auction",
						"label": "highestBid",
						"offset": 0,
						"slot": "4",
						"type": "t_uint256"
					},
					{
						"astId": 19,
						"contract": "contracts/Auction.sol:Auction",
						"label": "highestBindingBid",
						"offset": 0,
						"slot": "5",
						"type": "t_uint256"
					},
					{
						"astId": 21,
						"contract": "contracts/Auction.sol:Auction",
						"label": "inc",
						"offset": 0,
						"slot": "6",
						"type": "t_uint256"
					},
					{
						"astId": 23,
						"contract": "contracts/Auction.sol:Auction",
						"label": "highestBidder",
						"offset": 0,
						"slot": "7",
						"type": "t_address_payable"
					},
					{
						"astId": 27,
						"contract": "contracts/Auction.sol:Auction",
						"label": "bids",
						"offset": 0,
						"slot": "8",
						"type": "t_mapping(t_address,t_uint256)"
					}
				],
				"types": {
					"t_address": {
						"encoding": "inplace",
						"label": "address",
						"numberOfBytes": "20"
					},
					"t_address_payable": {
						"encoding": "inplace",
						"label": "address payable",
						"numberOfBytes": "20"
					},
					"t_enum(state)12": {
						"encoding": "inplace",
						"label": "enum Auction.state",
						"numberOfBytes": "1"
					},
					"t_mapping(t_address,t_uint256)": {
						"encoding": "mapping",
						"key": "t_address",
						"label": "mapping(address => uint256)",
						"numberOfBytes": "32",
						"value": "t_uint256"
					},
					"t_uint256": {
						"encoding": "inplace",
						"label": "uint256",
						"numberOfBytes": "32"
					}
				}
			},
			"userdoc": {
				"kind": "user",
				"methods": {},
				"version": 1
			}
		}
	}
}