{
	"contracts/Auction.sol": {
		"Auction": {
			"abi": [
				{
					"inputs": [],
					"name": "auctionState",
					"outputs": [
						{
							"internalType": "enum Auction.state",
							"name": "",
							"type": "uint8"
						}
					],
					"stateMutability": "view",
					"type": "function"
				},
				{
					"inputs": [],
					"name": "auctioneer",
					"outputs": [
						{
							"internalType": "address payable",
							"name": "",
							"type": "address"
						}
					],
					"stateMutability": "view",
					"type": "function"
				},
				{
					"inputs": [
						{
							"internalType": "address",
							"name": "",
							"type": "address"
						}
					],
					"name": "bids",
					"outputs": [
						{
							"internalType": "uint256",
							"name": "",
							"type": "uint256"
						}
					],
					"stateMutability": "view",
					"type": "function"
				},
				{
					"inputs": [],
					"name": "end_time",
					"outputs": [
						{
							"internalType": "uint256",
							"name": "",
							"type": "uint256"
						}
					],
					"stateMutability": "view",
					"type": "function"
				},
				{
					"inputs": [],
					"name": "highestBid",
					"outputs": [
						{
							"internalType": "uint256",
							"name": "",
							"type": "uint256"
						}
					],
					"stateMutability": "view",
					"type": "function"
				},
				{
					"inputs": [],
					"name": "highestBidder",
					"outputs": [
						{
							"internalType": "address payable",
							"name": "",
							"type": "address"
						}
					],
					"stateMutability": "view",
					"type": "function"
				},
				{
					"inputs": [],
					"name": "highestPayableBid",
					"outputs": [
						{
							"internalType": "uint256",
							"name": "",
							"type": "uint256"
						}
					],
					"stateMutability": "view",
					"type": "function"
				},
				{
					"inputs": [],
					"name": "inc",
					"outputs": [
						{
							"internalType": "uint256",
							"name": "",
							"type": "uint256"
						}
					],
					"stateMutability": "view",
					"type": "function"
				},
				{
					"inputs": [],
					"name": "placeBid",
					"outputs": [],
					"stateMutability": "payable",
					"type": "function"
				},
				{
					"inputs": [],
					"name": "start_time",
					"outputs": [
						{
							"internalType": "uint256",
							"name": "",
							"type": "uint256"
						}
					],
					"stateMutability": "view",
					"type": "function"
				}
			],
			"devdoc": {
				"kind": "dev",
				"methods": {},
				"version": 1
			},
			"evm": {
				"assembly": "    /* \"contracts/Auction.sol\":35:570  contract Auction{... */\n  mstore(0x40, 0x80)\n  callvalue\n  dup1\n  iszero\n  tag_1\n  jumpi\n  0x00\n  dup1\n  revert\ntag_1:\n  pop\n  dataSize(sub_0)\n  dup1\n  dataOffset(sub_0)\n  0x00\n  codecopy\n  0x00\n  return\nstop\n\nsub_0: assembly {\n        /* \"contracts/Auction.sol\":35:570  contract Auction{... */\n      mstore(0x40, 0x80)\n      jumpi(tag_1, lt(calldatasize, 0x04))\n      shr(0xe0, calldataload(0x00))\n      dup1\n      0x7fb45099\n      gt\n      tag_12\n      jumpi\n      dup1\n      0x7fb45099\n      eq\n      tag_7\n      jumpi\n      dup1\n      0x834ee417\n      eq\n      tag_8\n      jumpi\n      dup1\n      0x91f90157\n      eq\n      tag_9\n      jumpi\n      dup1\n      0xd57bde79\n      eq\n      tag_10\n      jumpi\n      dup1\n      0xecfc7ecc\n      eq\n      tag_11\n      jumpi\n      jump(tag_1)\n    tag_12:\n      dup1\n      0x16243356\n      eq\n      tag_2\n      jumpi\n      dup1\n      0x371303c0\n      eq\n      tag_3\n      jumpi\n      dup1\n      0x4f5150ca\n      eq\n      tag_4\n      jumpi\n      dup1\n      0x5ec2c7bf\n      eq\n      tag_5\n      jumpi\n      dup1\n      0x62ea82db\n      eq\n      tag_6\n      jumpi\n    tag_1:\n      0x00\n      dup1\n      revert\n        /* \"contracts/Auction.sol\":129:149  uint public end_time */\n    tag_2:\n      callvalue\n      dup1\n      iszero\n      tag_13\n      jumpi\n      0x00\n      dup1\n      revert\n    tag_13:\n      pop\n      tag_14\n      tag_15\n      jump\t// in\n    tag_14:\n      mload(0x40)\n      tag_16\n      swap2\n      swap1\n      tag_17\n      jump\t// in\n    tag_16:\n      mload(0x40)\n      dup1\n      swap2\n      sub\n      swap1\n      return\n        /* \"contracts/Auction.sol\":307:322  uint public inc */\n    tag_3:\n      callvalue\n      dup1\n      iszero\n      tag_18\n      jumpi\n      0x00\n      dup1\n      revert\n    tag_18:\n      pop\n      tag_19\n      tag_20\n      jump\t// in\n    tag_19:\n      mload(0x40)\n      tag_21\n      swap2\n      swap1\n      tag_17\n      jump\t// in\n    tag_21:\n      mload(0x40)\n      dup1\n      swap2\n      sub\n      swap1\n      return\n        /* \"contracts/Auction.sol\":271:300  uint public highestPayableBid */\n    tag_4:\n      callvalue\n      dup1\n      iszero\n      tag_22\n      jumpi\n      0x00\n      dup1\n      revert\n    tag_22:\n      pop\n      tag_23\n      tag_24\n      jump\t// in\n    tag_23:\n      mload(0x40)\n      tag_25\n      swap2\n      swap1\n      tag_17\n      jump\t// in\n    tag_25:\n      mload(0x40)\n      dup1\n      swap2\n      sub\n      swap1\n      return\n        /* \"contracts/Auction.sol\":60:93  address payable public auctioneer */\n    tag_5:\n      callvalue\n      dup1\n      iszero\n      tag_26\n      jumpi\n      0x00\n      dup1\n      revert\n    tag_26:\n      pop\n      tag_27\n      tag_28\n      jump\t// in\n    tag_27:\n      mload(0x40)\n      tag_29\n      swap2\n      swap1\n      tag_30\n      jump\t// in\n    tag_29:\n      mload(0x40)\n      dup1\n      swap2\n      sub\n      swap1\n      return\n        /* \"contracts/Auction.sol\":374:410  mapping(address => uint) public bids */\n    tag_6:\n      callvalue\n      dup1\n      iszero\n      tag_31\n      jumpi\n      0x00\n      dup1\n      revert\n    tag_31:\n      pop\n      tag_32\n      0x04\n      dup1\n      calldatasize\n      sub\n      dup2\n      add\n      swap1\n      tag_33\n      swap2\n      swap1\n      tag_34\n      jump\t// in\n    tag_33:\n      tag_35\n      jump\t// in\n    tag_32:\n      mload(0x40)\n      tag_36\n      swap2\n      swap1\n      tag_17\n      jump\t// in\n    tag_36:\n      mload(0x40)\n      dup1\n      swap2\n      sub\n      swap1\n      return\n        /* \"contracts/Auction.sol\":204:229  state public auctionState */\n    tag_7:\n      callvalue\n      dup1\n      iszero\n      tag_37\n      jumpi\n      0x00\n      dup1\n      revert\n    tag_37:\n      pop\n      tag_38\n      tag_39\n      jump\t// in\n    tag_38:\n      mload(0x40)\n      tag_40\n      swap2\n      swap1\n      tag_41\n      jump\t// in\n    tag_40:\n      mload(0x40)\n      dup1\n      swap2\n      sub\n      swap1\n      return\n        /* \"contracts/Auction.sol\":100:122  uint public start_time */\n    tag_8:\n      callvalue\n      dup1\n      iszero\n      tag_42\n      jumpi\n      0x00\n      dup1\n      revert\n    tag_42:\n      pop\n      tag_43\n      tag_44\n      jump\t// in\n    tag_43:\n      mload(0x40)\n      tag_45\n      swap2\n      swap1\n      tag_17\n      jump\t// in\n    tag_45:\n      mload(0x40)\n      dup1\n      swap2\n      sub\n      swap1\n      return\n        /* \"contracts/Auction.sol\":331:367  address payable public highestBidder */\n    tag_9:\n      callvalue\n      dup1\n      iszero\n      tag_46\n      jumpi\n      0x00\n      dup1\n      revert\n    tag_46:\n      pop\n      tag_47\n      tag_48\n      jump\t// in\n    tag_47:\n      mload(0x40)\n      tag_49\n      swap2\n      swap1\n      tag_30\n      jump\t// in\n    tag_49:\n      mload(0x40)\n      dup1\n      swap2\n      sub\n      swap1\n      return\n        /* \"contracts/Auction.sol\":242:264  uint public highestBid */\n    tag_10:\n      callvalue\n      dup1\n      iszero\n      tag_50\n      jumpi\n      0x00\n      dup1\n      revert\n    tag_50:\n      pop\n      tag_51\n      tag_52\n      jump\t// in\n    tag_51:\n      mload(0x40)\n      tag_53\n      swap2\n      swap1\n      tag_17\n      jump\t// in\n    tag_53:\n      mload(0x40)\n      dup1\n      swap2\n      sub\n      swap1\n      return\n        /* \"contracts/Auction.sol\":513:565  function placeBid() payable public{... */\n    tag_11:\n      tag_54\n      tag_55\n      jump\t// in\n    tag_54:\n      stop\n        /* \"contracts/Auction.sol\":129:149  uint public end_time */\n    tag_15:\n      sload(0x02)\n      dup2\n      jump\t// out\n        /* \"contracts/Auction.sol\":307:322  uint public inc */\n    tag_20:\n      sload(0x06)\n      dup2\n      jump\t// out\n        /* \"contracts/Auction.sol\":271:300  uint public highestPayableBid */\n    tag_24:\n      sload(0x05)\n      dup2\n      jump\t// out\n        /* \"contracts/Auction.sol\":60:93  address payable public auctioneer */\n    tag_28:\n      0x00\n      dup1\n      sload\n      swap1\n      0x0100\n      exp\n      swap1\n      div\n      0xffffffffffffffffffffffffffffffffffffffff\n      and\n      dup2\n      jump\t// out\n        /* \"contracts/Auction.sol\":374:410  mapping(address => uint) public bids */\n    tag_35:\n      mstore(0x20, 0x08)\n      dup1\n      0x00\n      mstore\n      keccak256(0x00, 0x40)\n      0x00\n      swap2\n      pop\n      swap1\n      pop\n      sload\n      dup2\n      jump\t// out\n        /* \"contracts/Auction.sol\":204:229  state public auctionState */\n    tag_39:\n      0x03\n      0x00\n      swap1\n      sload\n      swap1\n      0x0100\n      exp\n      swap1\n      div\n      0xff\n      and\n      dup2\n      jump\t// out\n        /* \"contracts/Auction.sol\":100:122  uint public start_time */\n    tag_44:\n      sload(0x01)\n      dup2\n      jump\t// out\n        /* \"contracts/Auction.sol\":331:367  address payable public highestBidder */\n    tag_48:\n      0x07\n      0x00\n      swap1\n      sload\n      swap1\n      0x0100\n      exp\n      swap1\n      div\n      0xffffffffffffffffffffffffffffffffffffffff\n      and\n      dup2\n      jump\t// out\n        /* \"contracts/Auction.sol\":242:264  uint public highestBid */\n    tag_52:\n      sload(0x04)\n      dup2\n      jump\t// out\n        /* \"contracts/Auction.sol\":513:565  function placeBid() payable public{... */\n    tag_55:\n      jump\t// out\n        /* \"#utility.yul\":7:84   */\n    tag_57:\n        /* \"#utility.yul\":44:51   */\n      0x00\n        /* \"#utility.yul\":73:78   */\n      dup2\n        /* \"#utility.yul\":62:78   */\n      swap1\n      pop\n        /* \"#utility.yul\":7:84   */\n      swap2\n      swap1\n      pop\n      jump\t// out\n        /* \"#utility.yul\":90:208   */\n    tag_58:\n        /* \"#utility.yul\":177:201   */\n      tag_76\n        /* \"#utility.yul\":195:200   */\n      dup2\n        /* \"#utility.yul\":177:201   */\n      tag_57\n      jump\t// in\n    tag_76:\n        /* \"#utility.yul\":172:175   */\n      dup3\n        /* \"#utility.yul\":165:202   */\n      mstore\n        /* \"#utility.yul\":90:208   */\n      pop\n      pop\n      jump\t// out\n        /* \"#utility.yul\":214:436   */\n    tag_17:\n        /* \"#utility.yul\":307:311   */\n      0x00\n        /* \"#utility.yul\":345:347   */\n      0x20\n        /* \"#utility.yul\":334:343   */\n      dup3\n        /* \"#utility.yul\":330:348   */\n      add\n        /* \"#utility.yul\":322:348   */\n      swap1\n      pop\n        /* \"#utility.yul\":358:429   */\n      tag_78\n        /* \"#utility.yul\":426:427   */\n      0x00\n        /* \"#utility.yul\":415:424   */\n      dup4\n        /* \"#utility.yul\":411:428   */\n      add\n        /* \"#utility.yul\":402:408   */\n      dup5\n        /* \"#utility.yul\":358:429   */\n      tag_58\n      jump\t// in\n    tag_78:\n        /* \"#utility.yul\":214:436   */\n      swap3\n      swap2\n      pop\n      pop\n      jump\t// out\n        /* \"#utility.yul\":442:568   */\n    tag_59:\n        /* \"#utility.yul\":479:486   */\n      0x00\n        /* \"#utility.yul\":519:561   */\n      0xffffffffffffffffffffffffffffffffffffffff\n        /* \"#utility.yul\":512:517   */\n      dup3\n        /* \"#utility.yul\":508:562   */\n      and\n        /* \"#utility.yul\":497:562   */\n      swap1\n      pop\n        /* \"#utility.yul\":442:568   */\n      swap2\n      swap1\n      pop\n      jump\t// out\n        /* \"#utility.yul\":574:678   */\n    tag_60:\n        /* \"#utility.yul\":619:626   */\n      0x00\n        /* \"#utility.yul\":648:672   */\n      tag_81\n        /* \"#utility.yul\":666:671   */\n      dup3\n        /* \"#utility.yul\":648:672   */\n      tag_59\n      jump\t// in\n    tag_81:\n        /* \"#utility.yul\":637:672   */\n      swap1\n      pop\n        /* \"#utility.yul\":574:678   */\n      swap2\n      swap1\n      pop\n      jump\t// out\n        /* \"#utility.yul\":684:826   */\n    tag_61:\n        /* \"#utility.yul\":787:819   */\n      tag_83\n        /* \"#utility.yul\":813:818   */\n      dup2\n        /* \"#utility.yul\":787:819   */\n      tag_60\n      jump\t// in\n    tag_83:\n        /* \"#utility.yul\":782:785   */\n      dup3\n        /* \"#utility.yul\":775:820   */\n      mstore\n        /* \"#utility.yul\":684:826   */\n      pop\n      pop\n      jump\t// out\n        /* \"#utility.yul\":832:1086   */\n    tag_30:\n        /* \"#utility.yul\":941:945   */\n      0x00\n        /* \"#utility.yul\":979:981   */\n      0x20\n        /* \"#utility.yul\":968:977   */\n      dup3\n        /* \"#utility.yul\":964:982   */\n      add\n        /* \"#utility.yul\":956:982   */\n      swap1\n      pop\n        /* \"#utility.yul\":992:1079   */\n      tag_85\n        /* \"#utility.yul\":1076:1077   */\n      0x00\n        /* \"#utility.yul\":1065:1074   */\n      dup4\n        /* \"#utility.yul\":1061:1078   */\n      add\n        /* \"#utility.yul\":1052:1058   */\n      dup5\n        /* \"#utility.yul\":992:1079   */\n      tag_61\n      jump\t// in\n    tag_85:\n        /* \"#utility.yul\":832:1086   */\n      swap3\n      swap2\n      pop\n      pop\n      jump\t// out\n        /* \"#utility.yul\":1173:1290   */\n    tag_63:\n        /* \"#utility.yul\":1282:1283   */\n      0x00\n        /* \"#utility.yul\":1279:1280   */\n      dup1\n        /* \"#utility.yul\":1272:1284   */\n      revert\n        /* \"#utility.yul\":1419:1515   */\n    tag_65:\n        /* \"#utility.yul\":1456:1463   */\n      0x00\n        /* \"#utility.yul\":1485:1509   */\n      tag_90\n        /* \"#utility.yul\":1503:1508   */\n      dup3\n        /* \"#utility.yul\":1485:1509   */\n      tag_59\n      jump\t// in\n    tag_90:\n        /* \"#utility.yul\":1474:1509   */\n      swap1\n      pop\n        /* \"#utility.yul\":1419:1515   */\n      swap2\n      swap1\n      pop\n      jump\t// out\n        /* \"#utility.yul\":1521:1643   */\n    tag_66:\n        /* \"#utility.yul\":1594:1618   */\n      tag_92\n        /* \"#utility.yul\":1612:1617   */\n      dup2\n        /* \"#utility.yul\":1594:1618   */\n      tag_65\n      jump\t// in\n    tag_92:\n        /* \"#utility.yul\":1587:1592   */\n      dup2\n        /* \"#utility.yul\":1584:1619   */\n      eq\n        /* \"#utility.yul\":1574:1637   */\n      tag_93\n      jumpi\n        /* \"#utility.yul\":1633:1634   */\n      0x00\n        /* \"#utility.yul\":1630:1631   */\n      dup1\n        /* \"#utility.yul\":1623:1635   */\n      revert\n        /* \"#utility.yul\":1574:1637   */\n    tag_93:\n        /* \"#utility.yul\":1521:1643   */\n      pop\n      jump\t// out\n        /* \"#utility.yul\":1649:1788   */\n    tag_67:\n        /* \"#utility.yul\":1695:1700   */\n      0x00\n        /* \"#utility.yul\":1733:1739   */\n      dup2\n        /* \"#utility.yul\":1720:1740   */\n      calldataload\n        /* \"#utility.yul\":1711:1740   */\n      swap1\n      pop\n        /* \"#utility.yul\":1749:1782   */\n      tag_95\n        /* \"#utility.yul\":1776:1781   */\n      dup2\n        /* \"#utility.yul\":1749:1782   */\n      tag_66\n      jump\t// in\n    tag_95:\n        /* \"#utility.yul\":1649:1788   */\n      swap3\n      swap2\n      pop\n      pop\n      jump\t// out\n        /* \"#utility.yul\":1794:2123   */\n    tag_34:\n        /* \"#utility.yul\":1853:1859   */\n      0x00\n        /* \"#utility.yul\":1902:1904   */\n      0x20\n        /* \"#utility.yul\":1890:1899   */\n      dup3\n        /* \"#utility.yul\":1881:1888   */\n      dup5\n        /* \"#utility.yul\":1877:1900   */\n      sub\n        /* \"#utility.yul\":1873:1905   */\n      slt\n        /* \"#utility.yul\":1870:1989   */\n      iszero\n      tag_97\n      jumpi\n        /* \"#utility.yul\":1908:1987   */\n      tag_98\n      tag_63\n      jump\t// in\n    tag_98:\n        /* \"#utility.yul\":1870:1989   */\n    tag_97:\n        /* \"#utility.yul\":2028:2029   */\n      0x00\n        /* \"#utility.yul\":2053:2106   */\n      tag_99\n        /* \"#utility.yul\":2098:2105   */\n      dup5\n        /* \"#utility.yul\":2089:2095   */\n      dup3\n        /* \"#utility.yul\":2078:2087   */\n      dup6\n        /* \"#utility.yul\":2074:2096   */\n      add\n        /* \"#utility.yul\":2053:2106   */\n      tag_67\n      jump\t// in\n    tag_99:\n        /* \"#utility.yul\":2043:2106   */\n      swap2\n      pop\n        /* \"#utility.yul\":1999:2116   */\n      pop\n        /* \"#utility.yul\":1794:2123   */\n      swap3\n      swap2\n      pop\n      pop\n      jump\t// out\n        /* \"#utility.yul\":2129:2309   */\n    tag_68:\n        /* \"#utility.yul\":2177:2254   */\n      0x4e487b7100000000000000000000000000000000000000000000000000000000\n        /* \"#utility.yul\":2174:2175   */\n      0x00\n        /* \"#utility.yul\":2167:2255   */\n      mstore\n        /* \"#utility.yul\":2274:2278   */\n      0x21\n        /* \"#utility.yul\":2271:2272   */\n      0x04\n        /* \"#utility.yul\":2264:2279   */\n      mstore\n        /* \"#utility.yul\":2298:2302   */\n      0x24\n        /* \"#utility.yul\":2295:2296   */\n      0x00\n        /* \"#utility.yul\":2288:2303   */\n      revert\n        /* \"#utility.yul\":2315:2428   */\n    tag_69:\n        /* \"#utility.yul\":2396:2397   */\n      0x04\n        /* \"#utility.yul\":2389:2394   */\n      dup2\n        /* \"#utility.yul\":2386:2398   */\n      lt\n        /* \"#utility.yul\":2376:2422   */\n      tag_102\n      jumpi\n        /* \"#utility.yul\":2402:2420   */\n      tag_103\n      tag_68\n      jump\t// in\n    tag_103:\n        /* \"#utility.yul\":2376:2422   */\n    tag_102:\n        /* \"#utility.yul\":2315:2428   */\n      pop\n      jump\t// out\n        /* \"#utility.yul\":2434:2561   */\n    tag_70:\n        /* \"#utility.yul\":2479:2486   */\n      0x00\n        /* \"#utility.yul\":2508:2513   */\n      dup2\n        /* \"#utility.yul\":2497:2513   */\n      swap1\n      pop\n        /* \"#utility.yul\":2514:2555   */\n      tag_105\n        /* \"#utility.yul\":2549:2554   */\n      dup3\n        /* \"#utility.yul\":2514:2555   */\n      tag_69\n      jump\t// in\n    tag_105:\n        /* \"#utility.yul\":2434:2561   */\n      swap2\n      swap1\n      pop\n      jump\t// out\n        /* \"#utility.yul\":2567:2694   */\n    tag_71:\n        /* \"#utility.yul\":2623:2632   */\n      0x00\n        /* \"#utility.yul\":2656:2688   */\n      tag_107\n        /* \"#utility.yul\":2682:2687   */\n      dup3\n        /* \"#utility.yul\":2656:2688   */\n      tag_70\n      jump\t// in\n    tag_107:\n        /* \"#utility.yul\":2643:2688   */\n      swap1\n      pop\n        /* \"#utility.yul\":2567:2694   */\n      swap2\n      swap1\n      pop\n      jump\t// out\n        /* \"#utility.yul\":2700:2843   */\n    tag_72:\n        /* \"#utility.yul\":2793:2836   */\n      tag_109\n        /* \"#utility.yul\":2830:2835   */\n      dup2\n        /* \"#utility.yul\":2793:2836   */\n      tag_71\n      jump\t// in\n    tag_109:\n        /* \"#utility.yul\":2788:2791   */\n      dup3\n        /* \"#utility.yul\":2781:2837   */\n      mstore\n        /* \"#utility.yul\":2700:2843   */\n      pop\n      pop\n      jump\t// out\n        /* \"#utility.yul\":2849:3083   */\n    tag_41:\n        /* \"#utility.yul\":2948:2952   */\n      0x00\n        /* \"#utility.yul\":2986:2988   */\n      0x20\n        /* \"#utility.yul\":2975:2984   */\n      dup3\n        /* \"#utility.yul\":2971:2989   */\n      add\n        /* \"#utility.yul\":2963:2989   */\n      swap1\n      pop\n        /* \"#utility.yul\":2999:3076   */\n      tag_111\n        /* \"#utility.yul\":3073:3074   */\n      0x00\n        /* \"#utility.yul\":3062:3071   */\n      dup4\n        /* \"#utility.yul\":3058:3075   */\n      add\n        /* \"#utility.yul\":3049:3055   */\n      dup5\n        /* \"#utility.yul\":2999:3076   */\n      tag_72\n      jump\t// in\n    tag_111:\n        /* \"#utility.yul\":2849:3083   */\n      swap3\n      swap2\n      pop\n      pop\n      jump\t// out\n\n    auxdata: 0xa2646970667358221220881ddfd2bd110357e2f810ed714bd039bef7763d7f7a97b12dd300c83251213d64736f6c634300080d0033\n}\n",
				"bytecode": {
					"linkReferences": {},
					"object": "608060405234801561001057600080fd5b50610492806100206000396000f3fe6080604052600436106100915760003560e01c80637fb45099116100595780637fb450991461017f578063834ee417146101aa57806391f90157146101d5578063d57bde7914610200578063ecfc7ecc1461022b57610091565b80631624335614610096578063371303c0146100c15780634f5150ca146100ec5780635ec2c7bf1461011757806362ea82db14610142575b600080fd5b3480156100a257600080fd5b506100ab610235565b6040516100b891906102e3565b60405180910390f35b3480156100cd57600080fd5b506100d661023b565b6040516100e391906102e3565b60405180910390f35b3480156100f857600080fd5b50610101610241565b60405161010e91906102e3565b60405180910390f35b34801561012357600080fd5b5061012c610247565b604051610139919061033f565b60405180910390f35b34801561014e57600080fd5b506101696004803603810190610164919061039d565b61026b565b60405161017691906102e3565b60405180910390f35b34801561018b57600080fd5b50610194610283565b6040516101a19190610441565b60405180910390f35b3480156101b657600080fd5b506101bf610296565b6040516101cc91906102e3565b60405180910390f35b3480156101e157600080fd5b506101ea61029c565b6040516101f7919061033f565b60405180910390f35b34801561020c57600080fd5b506102156102c2565b60405161022291906102e3565b60405180910390f35b6102336102c8565b005b60025481565b60065481565b60055481565b60008054906101000a900473ffffffffffffffffffffffffffffffffffffffff1681565b60086020528060005260406000206000915090505481565b600360009054906101000a900460ff1681565b60015481565b600760009054906101000a900473ffffffffffffffffffffffffffffffffffffffff1681565b60045481565b565b6000819050919050565b6102dd816102ca565b82525050565b60006020820190506102f860008301846102d4565b92915050565b600073ffffffffffffffffffffffffffffffffffffffff82169050919050565b6000610329826102fe565b9050919050565b6103398161031e565b82525050565b60006020820190506103546000830184610330565b92915050565b600080fd5b600061036a826102fe565b9050919050565b61037a8161035f565b811461038557600080fd5b50565b60008135905061039781610371565b92915050565b6000602082840312156103b3576103b261035a565b5b60006103c184828501610388565b91505092915050565b7f4e487b7100000000000000000000000000000000000000000000000000000000600052602160045260246000fd5b6004811061040a576104096103ca565b5b50565b600081905061041b826103f9565b919050565b600061042b8261040d565b9050919050565b61043b81610420565b82525050565b60006020820190506104566000830184610432565b9291505056fea2646970667358221220881ddfd2bd110357e2f810ed714bd039bef7763d7f7a97b12dd300c83251213d64736f6c634300080d0033",
					"opcodes": "PUSH1 0x80 PUSH1 0x40 MSTORE CALLVALUE DUP1 ISZERO PUSH2 0x10 JUMPI PUSH1 0x0 DUP1 REVERT JUMPDEST POP PUSH2 0x492 DUP1 PUSH2 0x20 PUSH1 0x0 CODECOPY PUSH1 0x0 RETURN INVALID PUSH1 0x80 PUSH1 0x40 MSTORE PUSH1 0x4 CALLDATASIZE LT PUSH2 0x91 JUMPI PUSH1 0x0 CALLDATALOAD PUSH1 0xE0 SHR DUP1 PUSH4 0x7FB45099 GT PUSH2 0x59 JUMPI DUP1 PUSH4 0x7FB45099 EQ PUSH2 0x17F JUMPI DUP1 PUSH4 0x834EE417 EQ PUSH2 0x1AA JUMPI DUP1 PUSH4 0x91F90157 EQ PUSH2 0x1D5 JUMPI DUP1 PUSH4 0xD57BDE79 EQ PUSH2 0x200 JUMPI DUP1 PUSH4 0xECFC7ECC EQ PUSH2 0x22B JUMPI PUSH2 0x91 JUMP JUMPDEST DUP1 PUSH4 0x16243356 EQ PUSH2 0x96 JUMPI DUP1 PUSH4 0x371303C0 EQ PUSH2 0xC1 JUMPI DUP1 PUSH4 0x4F5150CA EQ PUSH2 0xEC JUMPI DUP1 PUSH4 0x5EC2C7BF EQ PUSH2 0x117 JUMPI DUP1 PUSH4 0x62EA82DB EQ PUSH2 0x142 JUMPI JUMPDEST PUSH1 0x0 DUP1 REVERT JUMPDEST CALLVALUE DUP1 ISZERO PUSH2 0xA2 JUMPI PUSH1 0x0 DUP1 REVERT JUMPDEST POP PUSH2 0xAB PUSH2 0x235 JUMP JUMPDEST PUSH1 0x40 MLOAD PUSH2 0xB8 SWAP2 SWAP1 PUSH2 0x2E3 JUMP JUMPDEST PUSH1 0x40 MLOAD DUP1 SWAP2 SUB SWAP1 RETURN JUMPDEST CALLVALUE DUP1 ISZERO PUSH2 0xCD JUMPI PUSH1 0x0 DUP1 REVERT JUMPDEST POP PUSH2 0xD6 PUSH2 0x23B JUMP JUMPDEST PUSH1 0x40 MLOAD PUSH2 0xE3 SWAP2 SWAP1 PUSH2 0x2E3 JUMP JUMPDEST PUSH1 0x40 MLOAD DUP1 SWAP2 SUB SWAP1 RETURN JUMPDEST CALLVALUE DUP1 ISZERO PUSH2 0xF8 JUMPI PUSH1 0x0 DUP1 REVERT JUMPDEST POP PUSH2 0x101 PUSH2 0x241 JUMP JUMPDEST PUSH1 0x40 MLOAD PUSH2 0x10E SWAP2 SWAP1 PUSH2 0x2E3 JUMP JUMPDEST PUSH1 0x40 MLOAD DUP1 SWAP2 SUB SWAP1 RETURN JUMPDEST CALLVALUE DUP1 ISZERO PUSH2 0x123 JUMPI PUSH1 0x0 DUP1 REVERT JUMPDEST POP PUSH2 0x12C PUSH2 0x247 JUMP JUMPDEST PUSH1 0x40 MLOAD PUSH2 0x139 SWAP2 SWAP1 PUSH2 0x33F JUMP JUMPDEST PUSH1 0x40 MLOAD DUP1 SWAP2 SUB SWAP1 RETURN JUMPDEST CALLVALUE DUP1 ISZERO PUSH2 0x14E JUMPI PUSH1 0x0 DUP1 REVERT JUMPDEST POP PUSH2 0x169 PUSH1 0x4 DUP1 CALLDATASIZE SUB DUP2 ADD SWAP1 PUSH2 0x164 SWAP2 SWAP1 PUSH2 0x39D JUMP JUMPDEST PUSH2 0x26B JUMP JUMPDEST PUSH1 0x40 MLOAD PUSH2 0x176 SWAP2 SWAP1 PUSH2 0x2E3 JUMP JUMPDEST PUSH1 0x40 MLOAD DUP1 SWAP2 SUB SWAP1 RETURN JUMPDEST CALLVALUE DUP1 ISZERO PUSH2 0x18B JUMPI PUSH1 0x0 DUP1 REVERT JUMPDEST POP PUSH2 0x194 PUSH2 0x283 JUMP JUMPDEST PUSH1 0x40 MLOAD PUSH2 0x1A1 SWAP2 SWAP1 PUSH2 0x441 JUMP JUMPDEST PUSH1 0x40 MLOAD DUP1 SWAP2 SUB SWAP1 RETURN JUMPDEST CALLVALUE DUP1 ISZERO PUSH2 0x1B6 JUMPI PUSH1 0x0 DUP1 REVERT JUMPDEST POP PUSH2 0x1BF PUSH2 0x296 JUMP JUMPDEST PUSH1 0x40 MLOAD PUSH2 0x1CC SWAP2 SWAP1 PUSH2 0x2E3 JUMP JUMPDEST PUSH1 0x40 MLOAD DUP1 SWAP2 SUB SWAP1 RETURN JUMPDEST CALLVALUE DUP1 ISZERO PUSH2 0x1E1 JUMPI PUSH1 0x0 DUP1 REVERT JUMPDEST POP PUSH2 0x1EA PUSH2 0x29C JUMP JUMPDEST PUSH1 0x40 MLOAD PUSH2 0x1F7 SWAP2 SWAP1 PUSH2 0x33F JUMP JUMPDEST PUSH1 0x40 MLOAD DUP1 SWAP2 SUB SWAP1 RETURN JUMPDEST CALLVALUE DUP1 ISZERO PUSH2 0x20C JUMPI PUSH1 0x0 DUP1 REVERT JUMPDEST POP PUSH2 0x215 PUSH2 0x2C2 JUMP JUMPDEST PUSH1 0x40 MLOAD PUSH2 0x222 SWAP2 SWAP1 PUSH2 0x2E3 JUMP JUMPDEST PUSH1 0x40 MLOAD DUP1 SWAP2 SUB SWAP1 RETURN JUMPDEST PUSH2 0x233 PUSH2 0x2C8 JUMP JUMPDEST STOP JUMPDEST PUSH1 0x2 SLOAD DUP2 JUMP JUMPDEST PUSH1 0x6 SLOAD DUP2 JUMP JUMPDEST PUSH1 0x5 SLOAD DUP2 JUMP JUMPDEST PUSH1 0x0 DUP1 SLOAD SWAP1 PUSH2 0x100 EXP SWAP1 DIV PUSH20 0xFFFFFFFFFFFFFFFFFFFFFFFFFFFFFFFFFFFFFFFF AND DUP2 JUMP JUMPDEST PUSH1 0x8 PUSH1 0x20 MSTORE DUP1 PUSH1 0x0 MSTORE PUSH1 0x40 PUSH1 0x0 KECCAK256 PUSH1 0x0 SWAP2 POP SWAP1 POP SLOAD DUP2 JUMP JUMPDEST PUSH1 0x3 PUSH1 0x0 SWAP1 SLOAD SWAP1 PUSH2 0x100 EXP SWAP1 DIV PUSH1 0xFF AND DUP2 JUMP JUMPDEST PUSH1 0x1 SLOAD DUP2 JUMP JUMPDEST PUSH1 0x7 PUSH1 0x0 SWAP1 SLOAD SWAP1 PUSH2 0x100 EXP SWAP1 DIV PUSH20 0xFFFFFFFFFFFFFFFFFFFFFFFFFFFFFFFFFFFFFFFF AND DUP2 JUMP JUMPDEST PUSH1 0x4 SLOAD DUP2 JUMP JUMPDEST JUMP JUMPDEST PUSH1 0x0 DUP2 SWAP1 POP SWAP2 SWAP1 POP JUMP JUMPDEST PUSH2 0x2DD DUP2 PUSH2 0x2CA JUMP JUMPDEST DUP3 MSTORE POP POP JUMP JUMPDEST PUSH1 0x0 PUSH1 0x20 DUP3 ADD SWAP1 POP PUSH2 0x2F8 PUSH1 0x0 DUP4 ADD DUP5 PUSH2 0x2D4 JUMP JUMPDEST SWAP3 SWAP2 POP POP JUMP JUMPDEST PUSH1 0x0 PUSH20 0xFFFFFFFFFFFFFFFFFFFFFFFFFFFFFFFFFFFFFFFF DUP3 AND SWAP1 POP SWAP2 SWAP1 POP JUMP JUMPDEST PUSH1 0x0 PUSH2 0x329 DUP3 PUSH2 0x2FE JUMP JUMPDEST SWAP1 POP SWAP2 SWAP1 POP JUMP JUMPDEST PUSH2 0x339 DUP2 PUSH2 0x31E JUMP JUMPDEST DUP3 MSTORE POP POP JUMP JUMPDEST PUSH1 0x0 PUSH1 0x20 DUP3 ADD SWAP1 POP PUSH2 0x354 PUSH1 0x0 DUP4 ADD DUP5 PUSH2 0x330 JUMP JUMPDEST SWAP3 SWAP2 POP POP JUMP JUMPDEST PUSH1 0x0 DUP1 REVERT JUMPDEST PUSH1 0x0 PUSH2 0x36A DUP3 PUSH2 0x2FE JUMP JUMPDEST SWAP1 POP SWAP2 SWAP1 POP JUMP JUMPDEST PUSH2 0x37A DUP2 PUSH2 0x35F JUMP JUMPDEST DUP2 EQ PUSH2 0x385 JUMPI PUSH1 0x0 DUP1 REVERT JUMPDEST POP JUMP JUMPDEST PUSH1 0x0 DUP2 CALLDATALOAD SWAP1 POP PUSH2 0x397 DUP2 PUSH2 0x371 JUMP JUMPDEST SWAP3 SWAP2 POP POP JUMP JUMPDEST PUSH1 0x0 PUSH1 0x20 DUP3 DUP5 SUB SLT ISZERO PUSH2 0x3B3 JUMPI PUSH2 0x3B2 PUSH2 0x35A JUMP JUMPDEST JUMPDEST PUSH1 0x0 PUSH2 0x3C1 DUP5 DUP3 DUP6 ADD PUSH2 0x388 JUMP JUMPDEST SWAP2 POP POP SWAP3 SWAP2 POP POP JUMP JUMPDEST PUSH32 0x4E487B7100000000000000000000000000000000000000000000000000000000 PUSH1 0x0 MSTORE PUSH1 0x21 PUSH1 0x4 MSTORE PUSH1 0x24 PUSH1 0x0 REVERT JUMPDEST PUSH1 0x4 DUP2 LT PUSH2 0x40A JUMPI PUSH2 0x409 PUSH2 0x3CA JUMP JUMPDEST JUMPDEST POP JUMP JUMPDEST PUSH1 0x0 DUP2 SWAP1 POP PUSH2 0x41B DUP3 PUSH2 0x3F9 JUMP JUMPDEST SWAP2 SWAP1 POP JUMP JUMPDEST PUSH1 0x0 PUSH2 0x42B DUP3 PUSH2 0x40D JUMP JUMPDEST SWAP1 POP SWAP2 SWAP1 POP JUMP JUMPDEST PUSH2 0x43B DUP2 PUSH2 0x420 JUMP JUMPDEST DUP3 MSTORE POP POP JUMP JUMPDEST PUSH1 0x0 PUSH1 0x20 DUP3 ADD SWAP1 POP PUSH2 0x456 PUSH1 0x0 DUP4 ADD DUP5 PUSH2 0x432 JUMP JUMPDEST SWAP3 SWAP2 POP POP JUMP INVALID LOG2 PUSH5 0x6970667358 0x22 SLT KECCAK256 DUP9 SAR 0xDF 0xD2 0xBD GT SUB JUMPI 0xE2 0xF8 LT 0xED PUSH18 0x4BD039BEF7763D7F7A97B12DD300C8325121 RETURNDATASIZE PUSH5 0x736F6C6343 STOP ADDMOD 0xD STOP CALLER "
				},
				"gasEstimates": {
					"creation": {
						"codeDepositCost": "234000",
						"executionCost": "275",
						"totalCost": "234275"
					},
					"external": {
						"auctionState()": "2560",
						"auctioneer()": "2578",
						"bids(address)": "2903",
						"end_time()": "2430",
						"highestBid()": "2495",
						"highestBidder()": "2558",
						"highestPayableBid()": "2474",
						"inc()": "2452",
						"placeBid()": "208",
						"start_time()": "2451"
					}
				},
				"methodIdentifiers": {
					"auctionState()": "7fb45099",
					"auctioneer()": "5ec2c7bf",
					"bids(address)": "62ea82db",
					"end_time()": "16243356",
					"highestBid()": "d57bde79",
					"highestBidder()": "91f90157",
					"highestPayableBid()": "4f5150ca",
					"inc()": "371303c0",
					"placeBid()": "ecfc7ecc",
					"start_time()": "834ee417"
				}
			},
			"storageLayout": {
				"storage": [
					{
						"astId": 3,
						"contract": "contracts/Auction.sol:Auction",
						"label": "auctioneer",
						"offset": 0,
						"slot": "0",
						"type": "t_address_payable"
					},
					{
						"astId": 5,
						"contract": "contracts/Auction.sol:Auction",
						"label": "start_time",
						"offset": 0,
						"slot": "1",
						"type": "t_uint256"
					},
					{
						"astId": 7,
						"contract": "contracts/Auction.sol:Auction",
						"label": "end_time",
						"offset": 0,
						"slot": "2",
						"type": "t_uint256"
					},
					{
						"astId": 15,
						"contract": "contracts/Auction.sol:Auction",
						"label": "auctionState",
						"offset": 0,
						"slot": "3",
						"type": "t_enum(state)12"
					},
					{
						"astId": 17,
						"contract": "contracts/Auction.sol:Auction",
						"label": "highestBid",
						"offset": 0,
						"slot": "4",
						"type": "t_uint256"
					},
					{
						"astId": 19,
						"contract": "contracts/Auction.sol:Auction",
						"label": "highestPayableBid",
						"offset": 0,
						"slot": "5",
						"type": "t_uint256"
					},
					{
						"astId": 21,
						"contract": "contracts/Auction.sol:Auction",
						"label": "inc",
						"offset": 0,
						"slot": "6",
						"type": "t_uint256"
					},
					{
						"astId": 23,
						"contract": "contracts/Auction.sol:Auction",
						"label": "highestBidder",
						"offset": 0,
						"slot": "7",
						"type": "t_address_payable"
					},
					{
						"astId": 27,
						"contract": "contracts/Auction.sol:Auction",
						"label": "bids",
						"offset": 0,
						"slot": "8",
						"type": "t_mapping(t_address,t_uint256)"
					}
				],
				"types": {
					"t_address": {
						"encoding": "inplace",
						"label": "address",
						"numberOfBytes": "20"
					},
					"t_address_payable": {
						"encoding": "inplace",
						"label": "address payable",
						"numberOfBytes": "20"
					},
					"t_enum(state)12": {
						"encoding": "inplace",
						"label": "enum Auction.state",
						"numberOfBytes": "1"
					},
					"t_mapping(t_address,t_uint256)": {
						"encoding": "mapping",
						"key": "t_address",
						"label": "mapping(address => uint256)",
						"numberOfBytes": "32",
						"value": "t_uint256"
					},
					"t_uint256": {
						"encoding": "inplace",
						"label": "uint256",
						"numberOfBytes": "32"
					}
				}
			},
			"userdoc": {
				"kind": "user",
				"methods": {},
				"version": 1
			}
		}
	}
}