{
	"contracts/Auction.sol": {
		"Auction": {
			"abi": [
				{
					"inputs": [],
					"name": "auctionState",
					"outputs": [
						{
							"internalType": "enum Auction.state",
							"name": "",
							"type": "uint8"
						}
					],
					"stateMutability": "view",
					"type": "function"
				},
				{
					"inputs": [],
					"name": "auctioneer",
					"outputs": [
						{
							"internalType": "address payable",
							"name": "",
							"type": "address"
						}
					],
					"stateMutability": "view",
					"type": "function"
				},
				{
					"inputs": [],
					"name": "end_time",
					"outputs": [
						{
							"internalType": "uint256",
							"name": "",
							"type": "uint256"
						}
					],
					"stateMutability": "view",
					"type": "function"
				},
				{
					"inputs": [],
					"name": "start_time",
					"outputs": [
						{
							"internalType": "uint256",
							"name": "",
							"type": "uint256"
						}
					],
					"stateMutability": "view",
					"type": "function"
				}
			],
			"devdoc": {
				"kind": "dev",
				"methods": {},
				"version": 1
			},
			"evm": {
				"assembly": "    /* \"contracts/Auction.sol\":35:235  contract Auction{... */\n  mstore(0x40, 0x80)\n  callvalue\n  dup1\n  iszero\n  tag_1\n  jumpi\n  0x00\n  dup1\n  revert\ntag_1:\n  pop\n  dataSize(sub_0)\n  dup1\n  dataOffset(sub_0)\n  0x00\n  codecopy\n  0x00\n  return\nstop\n\nsub_0: assembly {\n        /* \"contracts/Auction.sol\":35:235  contract Auction{... */\n      mstore(0x40, 0x80)\n      callvalue\n      dup1\n      iszero\n      tag_1\n      jumpi\n      0x00\n      dup1\n      revert\n    tag_1:\n      pop\n      jumpi(tag_2, lt(calldatasize, 0x04))\n      shr(0xe0, calldataload(0x00))\n      dup1\n      0x16243356\n      eq\n      tag_3\n      jumpi\n      dup1\n      0x5ec2c7bf\n      eq\n      tag_4\n      jumpi\n      dup1\n      0x7fb45099\n      eq\n      tag_5\n      jumpi\n      dup1\n      0x834ee417\n      eq\n      tag_6\n      jumpi\n    tag_2:\n      0x00\n      dup1\n      revert\n        /* \"contracts/Auction.sol\":129:149  uint public end_time */\n    tag_3:\n      tag_7\n      tag_8\n      jump\t// in\n    tag_7:\n      mload(0x40)\n      tag_9\n      swap2\n      swap1\n      tag_10\n      jump\t// in\n    tag_9:\n      mload(0x40)\n      dup1\n      swap2\n      sub\n      swap1\n      return\n        /* \"contracts/Auction.sol\":60:93  address payable public auctioneer */\n    tag_4:\n      tag_11\n      tag_12\n      jump\t// in\n    tag_11:\n      mload(0x40)\n      tag_13\n      swap2\n      swap1\n      tag_14\n      jump\t// in\n    tag_13:\n      mload(0x40)\n      dup1\n      swap2\n      sub\n      swap1\n      return\n        /* \"contracts/Auction.sol\":204:229  state public auctionState */\n    tag_5:\n      tag_15\n      tag_16\n      jump\t// in\n    tag_15:\n      mload(0x40)\n      tag_17\n      swap2\n      swap1\n      tag_18\n      jump\t// in\n    tag_17:\n      mload(0x40)\n      dup1\n      swap2\n      sub\n      swap1\n      return\n        /* \"contracts/Auction.sol\":100:122  uint public start_time */\n    tag_6:\n      tag_19\n      tag_20\n      jump\t// in\n    tag_19:\n      mload(0x40)\n      tag_21\n      swap2\n      swap1\n      tag_10\n      jump\t// in\n    tag_21:\n      mload(0x40)\n      dup1\n      swap2\n      sub\n      swap1\n      return\n        /* \"contracts/Auction.sol\":129:149  uint public end_time */\n    tag_8:\n      sload(0x02)\n      dup2\n      jump\t// out\n        /* \"contracts/Auction.sol\":60:93  address payable public auctioneer */\n    tag_12:\n      0x00\n      dup1\n      sload\n      swap1\n      0x0100\n      exp\n      swap1\n      div\n      0xffffffffffffffffffffffffffffffffffffffff\n      and\n      dup2\n      jump\t// out\n        /* \"contracts/Auction.sol\":204:229  state public auctionState */\n    tag_16:\n      0x03\n      0x00\n      swap1\n      sload\n      swap1\n      0x0100\n      exp\n      swap1\n      div\n      0xff\n      and\n      dup2\n      jump\t// out\n        /* \"contracts/Auction.sol\":100:122  uint public start_time */\n    tag_20:\n      sload(0x01)\n      dup2\n      jump\t// out\n        /* \"#utility.yul\":7:84   */\n    tag_22:\n        /* \"#utility.yul\":44:51   */\n      0x00\n        /* \"#utility.yul\":73:78   */\n      dup2\n        /* \"#utility.yul\":62:78   */\n      swap1\n      pop\n        /* \"#utility.yul\":7:84   */\n      swap2\n      swap1\n      pop\n      jump\t// out\n        /* \"#utility.yul\":90:208   */\n    tag_23:\n        /* \"#utility.yul\":177:201   */\n      tag_35\n        /* \"#utility.yul\":195:200   */\n      dup2\n        /* \"#utility.yul\":177:201   */\n      tag_22\n      jump\t// in\n    tag_35:\n        /* \"#utility.yul\":172:175   */\n      dup3\n        /* \"#utility.yul\":165:202   */\n      mstore\n        /* \"#utility.yul\":90:208   */\n      pop\n      pop\n      jump\t// out\n        /* \"#utility.yul\":214:436   */\n    tag_10:\n        /* \"#utility.yul\":307:311   */\n      0x00\n        /* \"#utility.yul\":345:347   */\n      0x20\n        /* \"#utility.yul\":334:343   */\n      dup3\n        /* \"#utility.yul\":330:348   */\n      add\n        /* \"#utility.yul\":322:348   */\n      swap1\n      pop\n        /* \"#utility.yul\":358:429   */\n      tag_37\n        /* \"#utility.yul\":426:427   */\n      0x00\n        /* \"#utility.yul\":415:424   */\n      dup4\n        /* \"#utility.yul\":411:428   */\n      add\n        /* \"#utility.yul\":402:408   */\n      dup5\n        /* \"#utility.yul\":358:429   */\n      tag_23\n      jump\t// in\n    tag_37:\n        /* \"#utility.yul\":214:436   */\n      swap3\n      swap2\n      pop\n      pop\n      jump\t// out\n        /* \"#utility.yul\":442:568   */\n    tag_24:\n        /* \"#utility.yul\":479:486   */\n      0x00\n        /* \"#utility.yul\":519:561   */\n      0xffffffffffffffffffffffffffffffffffffffff\n        /* \"#utility.yul\":512:517   */\n      dup3\n        /* \"#utility.yul\":508:562   */\n      and\n        /* \"#utility.yul\":497:562   */\n      swap1\n      pop\n        /* \"#utility.yul\":442:568   */\n      swap2\n      swap1\n      pop\n      jump\t// out\n        /* \"#utility.yul\":574:678   */\n    tag_25:\n        /* \"#utility.yul\":619:626   */\n      0x00\n        /* \"#utility.yul\":648:672   */\n      tag_40\n        /* \"#utility.yul\":666:671   */\n      dup3\n        /* \"#utility.yul\":648:672   */\n      tag_24\n      jump\t// in\n    tag_40:\n        /* \"#utility.yul\":637:672   */\n      swap1\n      pop\n        /* \"#utility.yul\":574:678   */\n      swap2\n      swap1\n      pop\n      jump\t// out\n        /* \"#utility.yul\":684:826   */\n    tag_26:\n        /* \"#utility.yul\":787:819   */\n      tag_42\n        /* \"#utility.yul\":813:818   */\n      dup2\n        /* \"#utility.yul\":787:819   */\n      tag_25\n      jump\t// in\n    tag_42:\n        /* \"#utility.yul\":782:785   */\n      dup3\n        /* \"#utility.yul\":775:820   */\n      mstore\n        /* \"#utility.yul\":684:826   */\n      pop\n      pop\n      jump\t// out\n        /* \"#utility.yul\":832:1086   */\n    tag_14:\n        /* \"#utility.yul\":941:945   */\n      0x00\n        /* \"#utility.yul\":979:981   */\n      0x20\n        /* \"#utility.yul\":968:977   */\n      dup3\n        /* \"#utility.yul\":964:982   */\n      add\n        /* \"#utility.yul\":956:982   */\n      swap1\n      pop\n        /* \"#utility.yul\":992:1079   */\n      tag_44\n        /* \"#utility.yul\":1076:1077   */\n      0x00\n        /* \"#utility.yul\":1065:1074   */\n      dup4\n        /* \"#utility.yul\":1061:1078   */\n      add\n        /* \"#utility.yul\":1052:1058   */\n      dup5\n        /* \"#utility.yul\":992:1079   */\n      tag_26\n      jump\t// in\n    tag_44:\n        /* \"#utility.yul\":832:1086   */\n      swap3\n      swap2\n      pop\n      pop\n      jump\t// out\n        /* \"#utility.yul\":1092:1272   */\n    tag_27:\n        /* \"#utility.yul\":1140:1217   */\n      0x4e487b7100000000000000000000000000000000000000000000000000000000\n        /* \"#utility.yul\":1137:1138   */\n      0x00\n        /* \"#utility.yul\":1130:1218   */\n      mstore\n        /* \"#utility.yul\":1237:1241   */\n      0x21\n        /* \"#utility.yul\":1234:1235   */\n      0x04\n        /* \"#utility.yul\":1227:1242   */\n      mstore\n        /* \"#utility.yul\":1261:1265   */\n      0x24\n        /* \"#utility.yul\":1258:1259   */\n      0x00\n        /* \"#utility.yul\":1251:1266   */\n      revert\n        /* \"#utility.yul\":1278:1391   */\n    tag_28:\n        /* \"#utility.yul\":1359:1360   */\n      0x04\n        /* \"#utility.yul\":1352:1357   */\n      dup2\n        /* \"#utility.yul\":1349:1361   */\n      lt\n        /* \"#utility.yul\":1339:1385   */\n      tag_47\n      jumpi\n        /* \"#utility.yul\":1365:1383   */\n      tag_48\n      tag_27\n      jump\t// in\n    tag_48:\n        /* \"#utility.yul\":1339:1385   */\n    tag_47:\n        /* \"#utility.yul\":1278:1391   */\n      pop\n      jump\t// out\n        /* \"#utility.yul\":1397:1524   */\n    tag_29:\n        /* \"#utility.yul\":1442:1449   */\n      0x00\n        /* \"#utility.yul\":1471:1476   */\n      dup2\n        /* \"#utility.yul\":1460:1476   */\n      swap1\n      pop\n        /* \"#utility.yul\":1477:1518   */\n      tag_50\n        /* \"#utility.yul\":1512:1517   */\n      dup3\n        /* \"#utility.yul\":1477:1518   */\n      tag_28\n      jump\t// in\n    tag_50:\n        /* \"#utility.yul\":1397:1524   */\n      swap2\n      swap1\n      pop\n      jump\t// out\n        /* \"#utility.yul\":1530:1657   */\n    tag_30:\n        /* \"#utility.yul\":1586:1595   */\n      0x00\n        /* \"#utility.yul\":1619:1651   */\n      tag_52\n        /* \"#utility.yul\":1645:1650   */\n      dup3\n        /* \"#utility.yul\":1619:1651   */\n      tag_29\n      jump\t// in\n    tag_52:\n        /* \"#utility.yul\":1606:1651   */\n      swap1\n      pop\n        /* \"#utility.yul\":1530:1657   */\n      swap2\n      swap1\n      pop\n      jump\t// out\n        /* \"#utility.yul\":1663:1806   */\n    tag_31:\n        /* \"#utility.yul\":1756:1799   */\n      tag_54\n        /* \"#utility.yul\":1793:1798   */\n      dup2\n        /* \"#utility.yul\":1756:1799   */\n      tag_30\n      jump\t// in\n    tag_54:\n        /* \"#utility.yul\":1751:1754   */\n      dup3\n        /* \"#utility.yul\":1744:1800   */\n      mstore\n        /* \"#utility.yul\":1663:1806   */\n      pop\n      pop\n      jump\t// out\n        /* \"#utility.yul\":1812:2046   */\n    tag_18:\n        /* \"#utility.yul\":1911:1915   */\n      0x00\n        /* \"#utility.yul\":1949:1951   */\n      0x20\n        /* \"#utility.yul\":1938:1947   */\n      dup3\n        /* \"#utility.yul\":1934:1952   */\n      add\n        /* \"#utility.yul\":1926:1952   */\n      swap1\n      pop\n        /* \"#utility.yul\":1962:2039   */\n      tag_56\n        /* \"#utility.yul\":2036:2037   */\n      0x00\n        /* \"#utility.yul\":2025:2034   */\n      dup4\n        /* \"#utility.yul\":2021:2038   */\n      add\n        /* \"#utility.yul\":2012:2018   */\n      dup5\n        /* \"#utility.yul\":1962:2039   */\n      tag_31\n      jump\t// in\n    tag_56:\n        /* \"#utility.yul\":1812:2046   */\n      swap3\n      swap2\n      pop\n      pop\n      jump\t// out\n\n    auxdata: 0xa26469706673582212204c1a65253bdec9e79846e7a7fa6adbae815d145dc8d68c305d79e81bb90b3a7164736f6c634300080d0033\n}\n",
				"bytecode": {
					"linkReferences": {},
					"object": "608060405234801561001057600080fd5b50610264806100206000396000f3fe608060405234801561001057600080fd5b506004361061004c5760003560e01c806316243356146100515780635ec2c7bf1461006f5780637fb450991461008d578063834ee417146100ab575b600080fd5b6100596100c9565b6040516100669190610125565b60405180910390f35b6100776100cf565b6040516100849190610181565b60405180910390f35b6100956100f3565b6040516100a29190610213565b60405180910390f35b6100b3610106565b6040516100c09190610125565b60405180910390f35b60025481565b60008054906101000a900473ffffffffffffffffffffffffffffffffffffffff1681565b600360009054906101000a900460ff1681565b60015481565b6000819050919050565b61011f8161010c565b82525050565b600060208201905061013a6000830184610116565b92915050565b600073ffffffffffffffffffffffffffffffffffffffff82169050919050565b600061016b82610140565b9050919050565b61017b81610160565b82525050565b60006020820190506101966000830184610172565b92915050565b7f4e487b7100000000000000000000000000000000000000000000000000000000600052602160045260246000fd5b600481106101dc576101db61019c565b5b50565b60008190506101ed826101cb565b919050565b60006101fd826101df565b9050919050565b61020d816101f2565b82525050565b60006020820190506102286000830184610204565b9291505056fea26469706673582212204c1a65253bdec9e79846e7a7fa6adbae815d145dc8d68c305d79e81bb90b3a7164736f6c634300080d0033",
					"opcodes": "PUSH1 0x80 PUSH1 0x40 MSTORE CALLVALUE DUP1 ISZERO PUSH2 0x10 JUMPI PUSH1 0x0 DUP1 REVERT JUMPDEST POP PUSH2 0x264 DUP1 PUSH2 0x20 PUSH1 0x0 CODECOPY PUSH1 0x0 RETURN INVALID PUSH1 0x80 PUSH1 0x40 MSTORE CALLVALUE DUP1 ISZERO PUSH2 0x10 JUMPI PUSH1 0x0 DUP1 REVERT JUMPDEST POP PUSH1 0x4 CALLDATASIZE LT PUSH2 0x4C JUMPI PUSH1 0x0 CALLDATALOAD PUSH1 0xE0 SHR DUP1 PUSH4 0x16243356 EQ PUSH2 0x51 JUMPI DUP1 PUSH4 0x5EC2C7BF EQ PUSH2 0x6F JUMPI DUP1 PUSH4 0x7FB45099 EQ PUSH2 0x8D JUMPI DUP1 PUSH4 0x834EE417 EQ PUSH2 0xAB JUMPI JUMPDEST PUSH1 0x0 DUP1 REVERT JUMPDEST PUSH2 0x59 PUSH2 0xC9 JUMP JUMPDEST PUSH1 0x40 MLOAD PUSH2 0x66 SWAP2 SWAP1 PUSH2 0x125 JUMP JUMPDEST PUSH1 0x40 MLOAD DUP1 SWAP2 SUB SWAP1 RETURN JUMPDEST PUSH2 0x77 PUSH2 0xCF JUMP JUMPDEST PUSH1 0x40 MLOAD PUSH2 0x84 SWAP2 SWAP1 PUSH2 0x181 JUMP JUMPDEST PUSH1 0x40 MLOAD DUP1 SWAP2 SUB SWAP1 RETURN JUMPDEST PUSH2 0x95 PUSH2 0xF3 JUMP JUMPDEST PUSH1 0x40 MLOAD PUSH2 0xA2 SWAP2 SWAP1 PUSH2 0x213 JUMP JUMPDEST PUSH1 0x40 MLOAD DUP1 SWAP2 SUB SWAP1 RETURN JUMPDEST PUSH2 0xB3 PUSH2 0x106 JUMP JUMPDEST PUSH1 0x40 MLOAD PUSH2 0xC0 SWAP2 SWAP1 PUSH2 0x125 JUMP JUMPDEST PUSH1 0x40 MLOAD DUP1 SWAP2 SUB SWAP1 RETURN JUMPDEST PUSH1 0x2 SLOAD DUP2 JUMP JUMPDEST PUSH1 0x0 DUP1 SLOAD SWAP1 PUSH2 0x100 EXP SWAP1 DIV PUSH20 0xFFFFFFFFFFFFFFFFFFFFFFFFFFFFFFFFFFFFFFFF AND DUP2 JUMP JUMPDEST PUSH1 0x3 PUSH1 0x0 SWAP1 SLOAD SWAP1 PUSH2 0x100 EXP SWAP1 DIV PUSH1 0xFF AND DUP2 JUMP JUMPDEST PUSH1 0x1 SLOAD DUP2 JUMP JUMPDEST PUSH1 0x0 DUP2 SWAP1 POP SWAP2 SWAP1 POP JUMP JUMPDEST PUSH2 0x11F DUP2 PUSH2 0x10C JUMP JUMPDEST DUP3 MSTORE POP POP JUMP JUMPDEST PUSH1 0x0 PUSH1 0x20 DUP3 ADD SWAP1 POP PUSH2 0x13A PUSH1 0x0 DUP4 ADD DUP5 PUSH2 0x116 JUMP JUMPDEST SWAP3 SWAP2 POP POP JUMP JUMPDEST PUSH1 0x0 PUSH20 0xFFFFFFFFFFFFFFFFFFFFFFFFFFFFFFFFFFFFFFFF DUP3 AND SWAP1 POP SWAP2 SWAP1 POP JUMP JUMPDEST PUSH1 0x0 PUSH2 0x16B DUP3 PUSH2 0x140 JUMP JUMPDEST SWAP1 POP SWAP2 SWAP1 POP JUMP JUMPDEST PUSH2 0x17B DUP2 PUSH2 0x160 JUMP JUMPDEST DUP3 MSTORE POP POP JUMP JUMPDEST PUSH1 0x0 PUSH1 0x20 DUP3 ADD SWAP1 POP PUSH2 0x196 PUSH1 0x0 DUP4 ADD DUP5 PUSH2 0x172 JUMP JUMPDEST SWAP3 SWAP2 POP POP JUMP JUMPDEST PUSH32 0x4E487B7100000000000000000000000000000000000000000000000000000000 PUSH1 0x0 MSTORE PUSH1 0x21 PUSH1 0x4 MSTORE PUSH1 0x24 PUSH1 0x0 REVERT JUMPDEST PUSH1 0x4 DUP2 LT PUSH2 0x1DC JUMPI PUSH2 0x1DB PUSH2 0x19C JUMP JUMPDEST JUMPDEST POP JUMP JUMPDEST PUSH1 0x0 DUP2 SWAP1 POP PUSH2 0x1ED DUP3 PUSH2 0x1CB JUMP JUMPDEST SWAP2 SWAP1 POP JUMP JUMPDEST PUSH1 0x0 PUSH2 0x1FD DUP3 PUSH2 0x1DF JUMP JUMPDEST SWAP1 POP SWAP2 SWAP1 POP JUMP JUMPDEST PUSH2 0x20D DUP2 PUSH2 0x1F2 JUMP JUMPDEST DUP3 MSTORE POP POP JUMP JUMPDEST PUSH1 0x0 PUSH1 0x20 DUP3 ADD SWAP1 POP PUSH2 0x228 PUSH1 0x0 DUP4 ADD DUP5 PUSH2 0x204 JUMP JUMPDEST SWAP3 SWAP2 POP POP JUMP INVALID LOG2 PUSH5 0x6970667358 0x22 SLT KECCAK256 0x4C BYTE PUSH6 0x253BDEC9E798 CHAINID 0xE7 0xA7 STATICCALL PUSH11 0xDBAE815D145DC8D68C305D PUSH26 0xE81BB90B3A7164736F6C634300080D0033000000000000000000 "
				},
				"gasEstimates": {
					"creation": {
						"codeDepositCost": "122400",
						"executionCost": "171",
						"totalCost": "122571"
					},
					"external": {
						"auctionState()": "2582",
						"auctioneer()": "2511",
						"end_time()": "2407",
						"start_time()": "2473"
					}
				},
				"methodIdentifiers": {
					"auctionState()": "7fb45099",
					"auctioneer()": "5ec2c7bf",
					"end_time()": "16243356",
					"start_time()": "834ee417"
				}
			},
			"storageLayout": {
				"storage": [
					{
						"astId": 3,
						"contract": "contracts/Auction.sol:Auction",
						"label": "auctioneer",
						"offset": 0,
						"slot": "0",
						"type": "t_address_payable"
					},
					{
						"astId": 5,
						"contract": "contracts/Auction.sol:Auction",
						"label": "start_time",
						"offset": 0,
						"slot": "1",
						"type": "t_uint256"
					},
					{
						"astId": 7,
						"contract": "contracts/Auction.sol:Auction",
						"label": "end_time",
						"offset": 0,
						"slot": "2",
						"type": "t_uint256"
					},
					{
						"astId": 15,
						"contract": "contracts/Auction.sol:Auction",
						"label": "auctionState",
						"offset": 0,
						"slot": "3",
						"type": "t_enum(state)12"
					}
				],
				"types": {
					"t_address_payable": {
						"encoding": "inplace",
						"label": "address payable",
						"numberOfBytes": "20"
					},
					"t_enum(state)12": {
						"encoding": "inplace",
						"label": "enum Auction.state",
						"numberOfBytes": "1"
					},
					"t_uint256": {
						"encoding": "inplace",
						"label": "uint256",
						"numberOfBytes": "32"
					}
				}
			},
			"userdoc": {
				"kind": "user",
				"methods": {},
				"version": 1
			}
		}
	}
}